:100000004FC2000085C2000083C2000081C2000010
:100010007FC200007DC200007BC2000079C20000E8
:1000200077C2000075C200000C94AA210C947722BC
:100030000C947D1C6DC200006BC2000069C2000000
:1000400067C2000065C2000063C2000061C2000018
:100050005FC200000C94F41C5BC2000059C2000097
:1000600057C2000055C2000053C2000051C2000038
:100070004FC200004DC200004BC2000049C2000048
:1000800047C2000045C2000043C2000041C2000058
:100090003FC200003DC200003BC2000039C2000068
:1000A00037C2000035C2000033C200002B0014002C
:1000B0001A000800150017001C0018000C001200A0
:1000C00013002A00E00004001600070009000A00DF
:1000D0000B000D000E000F0033003400E1001D0086
:1000E0001B00060019000500110010003600370043
:1000F0003800E5002900E000E300E200777C2C00F6
:100100002800787CE600E700E400290001001E00DA
:100110001F002000210022002300240025002600CB
:1001200027002A000100000000000000000000007D
:100130005000510052004F0000000000010000007C
:1001400000000000000000000000000000000000AF
:100150000000000001000100010001000100010099
:1001600001000100010001000100010001001E0268
:100170001F0220022102220223022402250226025B
:1001800027022A000100000000000000000000001B
:100190002D002E002F023002310235000100000038
:1001A00000000000000000002D022E022F00300091
:1001B00031003502010001000100010001000100D1
:1001C0000100010001000100010001000100000028
:1001D000000000000000000000000000000000001F
:1001E000000000000100000000000000000000000E
:1001F00000000000000000000000000001000000FE
:1002000000000000000000000000000000000000EE
:1002100000000000010001000100010001000100D8
:1002200001000100010001000100010000000000C8
:10023000000000002A2B2800000000000000000041
:100240000000000000000029000000002C1E3420E7
:10025000212224342627252E362D3738271E1F200D
:100260002122232425263333362E37381F04050652
:100270000708090A0B0C0D0E0F1011121314151696
:100280001718191A1B1C1D2F3130232D3504050694
:100290000708090A0B0C0D0E0F1011121314151676
:1002A0001718191A1B1C1D2F3130354C0000000087
:1002B000000000000000000000000000000000003E
:1002C000000000000000000000000000000000002E
:1002D0007E0F00D4FFFFFFC7000000781E0343001D
:1002E0006F0072006E0065006C006900750073009D
:1002F00020007200650076003100000014035900F0
:1003000075007300680061006B006F0062006F0091
:1003100000000403090409025B00030100A0FA09BC
:100320000400000103010100092111010001224420
:100330000007058103080001090401000203000011
:10034000000921110100012222000705820320007B
:100350000107050303200001090402000103000056
:100360000009211101000122B600070584032000C5
:1003700001120100020000000865320500000101C1
:100380000200010660FF0961A1010962150026FF54
:10039000009520750881020963150026FF0095204D
:1003A00075089102C005010902A10185020901A198
:1003B0000005091901290815002501950875018115
:1003C000020501093009311581257F9502750881E3
:1003D0000609381581257F950175088106050C0AE7
:1003E00038021581257F950175088106C0C0050179
:1003F0000980A101850319012AB700150126B7005C
:10040000950175108100C0050C0901A10185041931
:10041000012AA002150126A002950175108100C0D5
:1004200005010906A1018506050719E029E7150060
:1004300025019508750181020507190029EF1500AE
:10044000250195F075018102050819012905950519
:1004500075019102950175039101C005010906A17D
:1004600001050719E029E7150025019508750181A7
:10047000029501750881010507190029FF1500265D
:10048000FF0095067508810005081901290515006A
:100490002501950575019102950175039101C00033
:1004A00011241FBECFEFDAE0DEBFCDBF04B603FEDE
:1004B00018C08091BB029091BC02A091BD02B09186
:1004C000BE028730904BA740B04B59F41092BB024C
:1004D0001092BC021092BD021092BE02E0E0F8E35E
:1004E000099511E0A0E0B1E0E0E6FAE402C0059071
:1004F0000D92A03BB107D9F722E0A0EBB1E001C01B
:100500001D92AB3BB207E1F70E94BC100C94DC24B7
:1005100077CD8430B8F46430A8F44C3098F450E0CF
:100520009CE0699F400D511D1124FA0190E3899FC1
:10053000E00DF11D1124EE0FFF1FE455FF4F8591D3
:100540009491089581E090E0089581E00895FDCFB1
:100550000895FBCF089581E00895F7CF0895F5CF72
:100560000895FDCF089508950895FDCF0895089545
:100570000895A6E0B0E0EFEBF2E00C94402449834C
:100580005A839E833091B70189819A81311117C0B6
:100590003E81332389F0222379F0F9D4182F682F74
:1005A00089819A81D3D469817A81812F0E941A0E20
:1005B0002696E3E00C945C24DAD4182FF4CFE7D429
:1005C00069817A81F3CFFC01262F408151816281BC
:1005D000738184819581CDCFCF93DF93EC0161E06E
:1005E000F2DFBE01B4DF882349F061E0CE01EBDF2A
:1005F000BE01AFDF8170DF91CF91089580E0FACF27
:100600000F931F93CF93DF93EC0160E0DCDF8C014D
:10061000BE01AADFBE01C801A8DFDF91CF911F9103
:100620000F91089591E001C0990F8A95EAF7892FFB
:10063000EBC3CF93C82F81E00C2E01C0880F0A9422
:10064000EAF70E941E0C8C2FEDDFCF91089581E018
:100650000895FDCF0895FBCF0895CF93C82F8ED373
:100660008C2FF7DF8C2FF7DF2FEF84E39CE02150F6
:1006700080409040E1F700C00000CF91089581E0F4
:10068000ECDF0C94181D80E0E8DF0C943C1D0F9308
:100690001F93CF93DF938C0161E095DFEC01B801EC
:1006A0005CDF811106C080E0DF91CF911F910F9137
:1006B0000895B801CE0155DF8823A9F3B801CE0112
:1006C0000E940519882379F3B801CE010E943518DC
:1006D000882349F3B801CE010E947E13882319F3C1
:1006E000B801CE010E9455138823E9F2B801CE016A
:1006F0000E9478188823B9F2B801CE010E94190F20
:10070000882389F2F8018581882361F0C330FCE7F2
:10071000DF07D9F050F4C115ECE7DE07A1F0C130D6
:10072000DC47A9F0C80117DFBFCFCB358CE7D8076E
:1007300099F0CC35ECE7DE0761F0CA35DC4791F77C
:100740000E94E50BEFCF9BDFAECF0E94130C9BDF27
:10075000AACF0E94DD0BE6CF0E94E70BE3CF07DFB5
:100760000E94541C17C018D003DF0C94581C81E061
:1007700008950895CF93DF93D82FF9DFC82F8823EA
:1007800011F08D2FF6DF8C2FDF91CF910895089512
:10079000F1CF089580E0FCCF0E943A1AF9CFCF93B1
:1007A0000E943A1AC82F8091B2018C1771F0C09341
:1007B000B2010E94E81C6093B3017093B40180936E
:1007C000B5019093B6018C2FE3DFCF910895ADE092
:1007D000B0E0EDEEF3E00C944124488759876A8736
:1007E0007B878C879D87911113D71F8286E0FE013E
:1007F0003896DE01119601900D928A95E1F78D8170
:1008000081110CC029813A814B815C816D817E818F
:100810008F814ED62D96E2E00C945D24CE01019698
:10082000DBDE8111EFCFF6CFFC012481213019F4FA
:1008300080819181D8C30895662321F00E94DA1443
:100840000C94A5150E942C15FBCFCF93C82F88239D
:1008500089F08CEF8C0F813A78F48C2F0E94F61A75
:10086000882321F08C2F0E94981B5DD78C2F0E942B
:10087000811B59D7CF91089580E28C0F883040F4C6
:10088000C77081E001C0880FCA95EAF7A4D6F1CFFE
:10089000EBE5EC0FE33040F4F0E0EB5AFE4F8081E3
:1008A00090E00E947A1AE6CFE8E5EC0FEB3150F4C5
:1008B000F0E0EE0FFF1FE15EFE4F808191810E940C
:1008C000A11AD8CF83E38C0F8331A0F661E08C2F7F
:1008D000B3DFD0CF882351F19CEF980F913A18F4F1
:1008E0000E94981B20C790E2980F983048F48770B8
:1008F00091E001C0990F8A95EAF7892F72D6F2CF5D
:100900009BE5980F933020F490E080E00C947A1AE5
:1009100098E5980F9B3120F490E080E00C94A11AA8
:1009200093E3980F933110F460E086CF08951F93FE
:10093000CF93DF93182FEB0188DF209731F4812FBD
:10094000C9DFDF91CF911F9108958FE99FE0019753
:10095000F1F700C000002197F0CF70E060E089332C
:1009600011F460E570E0E3CF882311F034D6DBC6E4
:100970000895882311F035D6D6C60895B0E0A0E0DA
:10098000E4ECF4E00C943A246C01D62FC72FFC0160
:100990001581068102950F7014D6E82E8823E9F0A0
:1009A000E12E1123D1F08C2F807F803461F080E222
:1009B0008D0F8830F8F08C2F807E803221F4D23079
:1009C000C8F00023B9F08091990282FF13C082E041
:1009D000CED6F7D591E0E82EE926BC2EB2949FE062
:1009E000B922FBE0FB1580F1EB2DF0E0E252FB4D6C
:1009F0000C942424E12CF1CF0C2F0F70C07F11F048
:100A00000295007F112381F0002349F080E28D0FD1
:100A1000883010F0D11105C0802FDDD584D68D2F00
:100A200040C0802FE8D5FACF8D2F54DF002361F02E
:100A300080E28D0F883010F0D11103C0802FD1D506
:100A400002C0802FDED56FD6EB2DE850FF0B349718
:100A500008F042C10E943A1A9BDECDB7DEB7E9E04A
:100A60000C9456242C2F2F70F22EC07FC03219F018
:100A7000F29480EFF822DD2341F0D13081F111238F
:100A800009F439C00023C9F0CACF8091990282FDD0
:100A900010C0112341F0FF2019F08F2D9CD543D6B3
:100AA00080E0D3DED1CF80E015DFFF2069F28F2D0B
:100AB000C6CF112359F0011103C08F2D55DFC4CFCC
:100AC000013009F0C1CF8F2DB7D5BECF0111BCCFFA
:100AD0008F2D4FDF8F2DBBD58F2DA0D5B5CF1123F7
:100AE00021F0063008F0B0CFE8CF053008F0ACCFE9
:100AF0008F2D3FDFA9CF0023D9F3D93349F43FEF3E
:100B000087EE93E0315080409040E1F700C0000054
:100B10008D2FE0DE99CF8C2F86958695837069F0B6
:100B2000813009F091CF8D2F9C2F9370111102C04D
:100B300080E090E00E94A11A87CF8D2F9C2F9370A8
:100B4000111102C080E090E00E947A1A7DCF612FDF
:100B50008D2F72DE79CF8C2F837059F5111174CFE0
:100B60004D2F429546954770440F440F8D2F8F703F
:100B7000042E01C0880F0A94EAF72D2F2071D4FFAC
:100B800007C02FE030E001C0220F4A95EAF7209518
:100B9000C695C695C370822BC23039F040F4C1307F
:100BA00011F038D151CF32D14FCF38D14DCF2CD1D8
:100BB0004BCF8695112311F08C2F8170882309F477
:100BC00043CF4D2F429546954770440F440F8D2FCC
:100BD0008F70042E01C0880F0A94EAF72D2F207120
:100BE000D4FF07C02FE030E001C0220F4A95EAF79A
:100BF0002095C695C695C370822BC23039F040F45B
:100C0000C13011F046D120CF40D11ECF46D11CCFEC
:100C10000FD11ACFCF70112321F08C2F17D18D2F28
:100C20004DCF8D2FA6DE8C2F1BD10ECFD23F39F1A9
:100C300060F4D03FB9F0D13F81F0112309F43CC0FA
:100C40000111EDCE8C2F8F711EC0D33FF1F0D43F38
:100C5000A1F78091990282FD20C08C2F8F71112302
:100C600019F311C0112339F0053008F0EDCE8C2FA7
:100C70008F7101D1E9CE063008F0E6CEF8CF8C2F87
:100C80008F711111D1CFE2D0DFCE112321F08C2F43
:100C90008F71D5D0D9CED1D0D7CE112329F063E032
:100CA0008C2F8F714DD5D0CE81E061D5023008F404
:100CB000CBCE82E05CD5C8CE002359F0D93309F001
:100CC00027CFEFEFF7EE23E0E150F0402040E1F7CF
:100CD0001DCF8C2F8F71A8CFEE2009F4BECE6DD41E
:100CE00080FDBBCEF601158262D4B0D0C60117D00C
:100CF0005ED4B6D0B2CE0F931F93CF93DF93EC01A7
:100D0000688179818D8178D18C01CBD07CD0B8017C
:100D1000CE0134DEDF91CF911F910F910895CF93D3
:100D2000DF93EC018C81882381F0CE01B0DC81114E
:100D30000FC047D4882349F08D81882331F08091FA
:100D4000990282FF02C082E012D5DF91CF9108950F
:100D5000CE01D1DFCE0154DCF8CF90E080E00E94DC
:100D60007A1A90E080E00E94A11A52D4DCD40E944A
:100D7000BE150C94A5150E94AF1BEFCF39D4FBCF45
:100D800092959F70963091F058F4925F9F709230D8
:100D900058F4803F19F030F4883E30F481E0089533
:100DA0009A5FF4CF843FD1F380E00895883EB0F39A
:100DB000813FD1F7F3CFFC012481222321F08081F0
:100DC000918111D1DDCF80E00895A6E0B0E0EBEE97
:100DD000F6E00C9441242696E2E00C945D24A7E012
:100DE000B0E0E5EFF6E00C9441242796E2E00C94A5
:100DF0005D240895FECF0895FDCF0895FADFFCDF4E
:100E00008093CB0108950895F9CF08959091CB0177
:100E1000892BF4CF9091CB018923F0CF9091CB0116
:100E20008927ECCFE6CF0895FDCF0895E2CF08954E
:100E3000FDDFFADF8093CA01089580E0F9CF91E0E9
:100E400001C0990F8A95EAF7892FF2CF21E030E0AF
:100E500001C0220F8A95EAF78091CA01822BE8CF60
:100E600021E030E001C0220F8A95EAF720958091B9
:100E7000CA018223DDCF21E030E001C0220F8A9534
:100E8000EAF78091CA018227D3CF9091CA01892BBA
:100E9000CFCF9091CA018923CBCF9091CA018927E6
:100EA000C7CF0895262F277091E001C0990F2A958A
:100EB000EAF723E0769567952A95E1F7FB01EE0FB7
:100EC000FF1FE60FF71FE40FF51F50E040E0682F0B
:100ED00070E08191DF0111979B01042E02C03695CD
:100EE00027950A94E2F7217021952827292328279E
:100EF0002C934F5F5F4F4330510559F70895A82F4A
:100F0000A77023E0969587952A95E1F7FC01EE0FEF
:100F1000FF1FE80FF91FE60FF71F50E040E080E0E9
:100F2000219130E00A2E02C0369527950A94E2F707
:100F300021703327042E01C0220F0A94EAF7822B76
:100F40004F5F5F4F4330510559F70895262F943076
:100F500068F48C3058F4682F70E08CE0989F600D36
:100F6000711D112448EB51E0822F9CCF0895292F49
:100F7000943058F48C3048F490E068EB71E03CE039
:100F8000239F800D911D1124BACF80E00895CF9248
:100F9000DF92FF920F931F93CF93DF936C01009129
:100FA000CA018091CB01082BC5E0D0E010E0FC2EF7
:100FB000C8010C2E02C0959587950A94E2F780FD32
:100FC0000CC02197A0F7F12C8F2DDF91CF911F91AD
:100FD0000F91FF90DF90CF900895B6018C2F34D6FB
:100FE000019779F3F1CFCF93DF93EC01D0DFBE010E
:100FF0002BD6DF91CF9108951F93CF93DF93EB0111
:101000009091B701992331F0CB01EDDFDF91CF91C2
:101010001F910895882351F0CB01B9DF182F682F55
:10102000CE0194DFBE01812F0FD6F0CFCB019FDF21
:10103000182FF8CFE1E0F0E0DF0102C0AA0FBB1FDC
:101040006A95E2F7BD01DF0102C0AA0FBB1F4A95F6
:10105000E2F76A2B01C0EE0F2A95EAF7962F982344
:10106000961302C08E2B0895E0958E230895242FA9
:10107000462F682F8091CA01DDDFDACE1F93CF9310
:10108000DF93C091CC0117E08091CD018C1304C097
:10109000DF91CF911F910895D0E01C9FF0011D9F1B
:1010A000F00D1124E253FE4F2081318142815381A2
:1010B00064817581868193DE2196C770E5CF20918A
:1010C0000602309107024091080250910902609196
:1010D0000A0270910B0280910C0281CECF93DF93B4
:1010E00080910C02807F09F04BC080910B02882315
:1010F00009F446C0E091CC015091CD01C0910702A6
:10110000D0910602609108027091090247E05E17D3
:10111000B9F18E2F90E0E49FF0011124E253FE4FCD
:101120002481222381F1489FF001499FF00D112471
:10113000DF01A253BE4F11962C9111972C1323C09F
:101140002C912D1320C015962C91159721111BC0A1
:1011500012962D913C91261B370B283C310598F4B3
:1011600080910C028F70806180930C02EC52FE4FD4
:1011700080818F708061808386E092E0D0DD7EDFA9
:10118000DF91CF910895FC013196E770C0CF482FD1
:101190002091CC019091CD0157E0291302C080E04D
:1011A000089530E0529FF001539FF00D1124E25357
:1011B000FE4F8181681306C08081481303C085817A
:1011C0008111EECF2F5F3F4F2770E7CFA4E1B0E052
:1011D000ECEEF8E00C9437248C0186E0F801DE0197
:1011E0001F9601900D928A95E1F7F8018481E580C0
:1011F00096E0A92E92E0B92E90910A0291111AC0A0
:101200008823A9F0EE2089F0C801D5DDF82E8823C7
:1012100061F087E0F801D50101900D928A95E1F720
:10122000C50102DB5BDF4BDF59C0C80178DDFF245D
:10123000F39454C0C080D18082809380F0900B02E0
:101240002091080230910902A401421B530BFF2098
:1012500009F4E9C0483C510508F09CC0882309F412
:101260003DC09091070280910C02282F207F09F049
:1012700056C09D1114C090910602C91210C0E11011
:1012800048C08F70806180930C0219DF86E092E085
:1012900046DD80910C02F8018683F12C1FC0E1101D
:1012A00038C06D2D8C2D73DF6D2D8C2D70DFE82EE9
:1012B0008111F3CFCF86D88A8F85988994DE292F24
:1012C00022952F70243078F49F702230A0F099235B
:1012D000B1F0F8019681907F91F4FE2C8F2D6496E9
:1012E000ECE00C9453242A5F2F70223060F0C80188
:1012F00016DDEF2CF2CF992311F0882371F3805E75
:10130000883058F3F4CF803F40F3815F833078F723
:10131000E4CF80910C02816080930C02BECF9D11BE
:1013200012C090910602C9120EC0E1100CC0868353
:10133000C801F5DC87E0F801A6E0B2E001900D926B
:101340008A95E1F770CFC80136DD882309F46DCFA7
:10135000EE2009F46ACF80910C02803280F0209157
:10136000060230910702398728879B868A869091EA
:101370000A029C871D868E87CE010896D0DC87E006
:10138000F801A6E0B2E001900D928A95E1F7A6DEA1
:1013900096DE4DCF90910C02292F207F89F4682D85
:1013A0009A8A898AA6017A899E2D0FDD86E092E0CD
:1013B000B6DC87E0F50111928A95E9F780DE6DCF02
:1013C000882309F48BCF809107028D110FC0809183
:1013D0000602C8120BC0E11009C09683C8019FDC49
:1013E00087E0F50111928A95E9F778CFC801E3DC2F
:1013F000882309F41ACFEE2009F417CF80910C024C
:10140000803208F4BCCF20910602309107023A8363
:1014100029839C828B8290910A029D831E828F83F6
:10142000CE010196ABCF483C5105A8F5882309F4BD
:10143000FECEFE2CEE2009F4F8CE809107028D112D
:101440001EC080910602C8121AC080910C0280FD55
:101450000DC0982F907F51F08683903F09F468CF9C
:10146000982F907F905F8F70892B61CF87E0F80174
:10147000A6E0B2E001900D928A95E1F72FCFC80166
:101480009ADC81117CCF80910C02816080930C02E8
:10149000C80145DC23CF682D9A8A898AA6017A89FA
:1014A0009E2D93DC87E0F50111928A95E9F7BBCE7A
:1014B000AEE0B0E0EEE5FAE00C94402428873987EE
:1014C0004A875B876C877D878E87CE0108967EDE94
:1014D0008823A9F06C85662339F0288539854A85EB
:1014E0005B857D858E857BDC17E08091CC019091BA
:1014F000CD0189133BC02E96E3E00C945C2487E079
:10150000FE013896DE01119601900D928A95E1F761
:101510008C85882349F32091CD0130E0C9010196E3
:10152000877099274091CC014817190691F097E0F0
:10153000929FD001939FB00D1124A253BE4FFE0184
:10154000319601900D929A95E1F78093CD0196DD49
:10155000CBCF14DC1092CD011092CC0187E0E6E0F5
:10156000F2E0DF011D928A95E9F7BECF819FC001AD
:10157000112482539E4F2ADE882309F4BCCFE091C8
:10158000CC011E9FF0011124E253FE4F20813181D6
:101590004281538164817581868121DC8091CC01F7
:1015A00090E00196877099278093CC019ECF80911F
:1015B00035028695869586950895809135028770C7
:1015C000089590913502977081E009F480E00895C4
:1015D00080916102089590916102892B809361024C
:1015E00008958095909161029823909361020895E7
:1015F00010926102089590916002892B809360029D
:1016000008958095909160029823909360020895C8
:101610001092600208950895FECF089590913602C9
:10162000292F282329F08095892380933602F4CF2F
:1016300008950895FECF089590913702292F282309
:10164000281721F0982B90933702F4CF08959091AA
:101650003702292F282329F0809589238093370288
:10166000E9CF089580913702882321F01092370244
:1016700080E0E0CF0895CF93C09161028091600235
:10168000C82B80913702882329F0C82B0E94D51AD5
:101690008111E8DF8C2FCF910895CF93DF93C09114
:1016A0000201D0910301E7DF8883C0910201D0914C
:1016B000030148E050E06DE272E0CE010E947C241C
:1016C000892B59F088E0FE01ADE2B2E001900D9265
:1016D0008A95E1F7CE010E94491ADF91CF910895D2
:1016E000CF93DF93C0910001D0910101C4DF8983C2
:1016F000C0910001D091010140E250E06DE072E044
:10170000CE010E947C24892B59F080E2FE01ADE0DD
:10171000B2E001900D928A95E1F7CE010E94561A2F
:10172000DF91CF9108950E94331A882329F0809188
:10173000980287FF01C0D4CFB0CF0895FECF08959F
:101740009091990292FF0EC098E0899F9001112418
:10175000622B609335027ADB8091350286958695FF
:101760008695ECCF73CB1092350280E0E7CF909155
:1017700035028095892380933502282F277059F4EC
:10178000891749F09091990292FF05C08695869538
:10179000869566DBE8CF08959091990292FB222707
:1017A00020F9281749F080FB92F99093990288E973
:1017B00092E048D082E0DBCF08958091990282FBCD
:1017C000882780F991E08927E7CF81E0E5CF80E0A5
:1017D000E3CF60E070E0CB0189C360E070E0CB0153
:1017E0007FD3F7CFA3E0B0E0E8EFFBE00C94412417
:1017F00032D33DD31B82CE01039650D381E0809338
:10180000CB0156D31A8219828A8184618A83CE01E0
:1018100001965FD30E94F118E0DF2396E2E00C947A
:101820005D24E0CF089529C3089516D381110C9447
:10183000B718089528C3089537C3089539C3089584
:101840003CC3089546C3089557C30895A6E0B0E089
:10185000ECE2FCE00C943F240E94DC1C8C018091A3
:101860006202909163028017910781F019821A82B7
:101870000E94DC1C682F49815A81792F80E090E01A
:101880000E94E70310936302009362022696E4E04D
:101890000C945B240E94E81C6093700270937102A8
:1018A000809372029093730260936C0270936D0246
:1018B00080936E0290936F02089508950895FDCF6E
:1018C00008950895FEDFFBCF0895FECF0895089593
:1018D000FEDFFBCF87E19FE062D4F0DFF3CF81E052
:1018E0000895FDCF0895FBCF0895089508950895B4
:1018F000FCDFFCDFFCCF99DF811101C092DF84E7C0
:1019000092E098DF88E992E09BDF69D495DF7CDA8A
:101910008091CA0189CA0E94D31C0E94FC18A4D3DA
:10192000EADF0E94C703D4CFA6E0B0E0EAE9FCE01A
:101930000C943524D6DF811109C088DF0E94E015A0
:101940000E94CF032696EEE00C9451249FD324E608
:10195000822E22E0922E640110E0F601E190F190D7
:101960006F01812FD4D21F5F143009F447C0E816ED
:10197000F90699F38091740281FDD2D2B4DF782EFA
:1019800010E066246394812FC2D27C01F401A190FF
:10199000B1904F018A159B0561F1A826BF2400E094
:1019A000CC24C394D12CC5018C219D21892BC1F05D
:1019B0007720B1F009831A830E94DC1C9C838B83FF
:1019C0006D8221E0C7018C219D21892B09F420E043
:1019D00049815A816B817C818D81922F0E94E7031E
:1019E0000F5FCC0CDD1C0C30F1F6F4013297F18264
:1019F000E0821F5F143039F64DDFA0CFE816F906FC
:101A000009F0B8CF9ACF1F93CF93DF931FD1EC018A
:101A1000C11580E5D807F0F5C11580E4D80708F0B6
:101A20009AC0C03ED10520F5CD3CD10508F082C05A
:101A3000C83AD10578F4C53AD10508F073C0C13071
:101A4000D10519F1209709F1C430D105F0F4D0E0A7
:101A5000C0E01BC0C33CD105D0F7C85AD0E0CC0FC2
:101A6000DD1FC85ADE4F0990D881C02DD4640DC047
:101A7000C11580E2D80708F0CDC0C11581E0D807B4
:101A800008F05AC0C83ED10510F7CE01DF91CF91C2
:101A90001F910895C03682E5D80718F5C03482E555
:101AA000D80708F068C0C03282E5D80708F05CC0EB
:101AB000C11582E5D80708F493C02C2F26952695EA
:101AC00080E2289F900111248C2F8370C1E0D0E028
:101AD00002C0CC0FDD1F8A95E2F7C22BD32BDD6845
:101AE000D4CFC03A82E5D80760F4C03882E5D80781
:101AF00008F456C0CF71D0E0DC2FCC27C46FD06A79
:101B0000C4CFC03C82E5D80708F45FC0C03E82E580
:101B1000D80708F09CCFDC2FCC27CC27DF71C06F13
:101B2000D06AB3CFC55AD0E0C257DE4FC881D0E0EB
:101B3000D064ABCFD065A9CF8D2F2AD1182FCE017D
:101B4000992784D0C12FD0E0DC2FCC27CC27DF71A0
:101B5000C82BD92B9ACFCE01992778D0CC27DF700C
:101B6000C82BD92BD06A91CFCF71D0E0DC2FCC27F6
:101B7000C16FD06A8ACF2C2F26952695277080E2D8
:101B8000289F900111248C2F8370C1E0D0E002C007
:101B9000CC0FDD1F8A95E2F7C22BD32BDC6875CF03
:101BA0002C2F26952695277080E2289F90011124DE
:101BB0008C2F8370C1E0D0E002C0CC0FDD1F8A956E
:101BC000E2F7C22BD32BDA6860CF8C2F8F71E0D075
:101BD000C82FD0E0DC2FCC27CC27DF71D06255CFC7
:101BE0008C2F8F71D5D055E0D695C7955A95E1F7D2
:101BF000CF70D0E0DC2FCC27282F30E084FF06C048
:101C000044E0220F331F4A95E1F73327C22BD32B31
:101C1000D0693BCF8D2F8F71BBD0182FCE01992764
:101C200015D0C12FD0E0DC2FCC27CC27DF71C82BFB
:101C3000D92BD4CF462F743020F46C3010F4672F9A
:101C400035C390E080E00895F5DFDDCE8238910560
:101C5000B9F1B0F48133910509F47DC048F48932BB
:101C6000910509F46DC08A32910509F47BC008958D
:101C70008533910509F45FC08933910509F1089511
:101C8000833E9105D9F138F4803E910529F1823ED9
:101C9000910579F10895863E9105D9F1873E910528
:101CA00009F43EC0843E910541F52091990221FF3F
:101CB00024C08091980284FD19C087EE90E00895B9
:101CC00020919802237009F05AC02091990223FFB5
:101CD00014C089E290E008952091980220FD38C058
:101CE0003091990230FF09C024FF43C090E080E0AA
:101CF00008952091980222FDF7CF0895209198022F
:101D000022FD3AC03091990230FD39C024FFF5CF51
:101D1000EDCF2091980223FFF0CF24FDE7CFCDCF68
:101D20002091980223FD2EC03091990231FFEECF11
:101D300084EE90E008952091980225FFDECFC9CF70
:101D40002091980225FD21C02091990223FFD5CF33
:101D500089E390E0D2CF2091980226FFCECF8AE28D
:101D600090E008952091980226FFC7CF81E390E08C
:101D7000089583EE90E0089582EE90E0089580EE5D
:101D800090E0089586EE90E0089585E390E0089550
:101D90009091980292FF10C041E0282F24712430C6
:101DA00009F040E031E0282F2871283009F030E0B8
:101DB000431711F02CE0822793FF10C041E0282F39
:101DC0002471243109F040E031E0282F28712831B6
:101DD00009F030E0431711F02CE08227309199028E
:101DE00030FF10C051E0282F2171213009F050E060
:101DF00041E0282F2871283009F040E0541711F0F5
:101E000029E0822731FF10C041E0282F21712131C4
:101E100009F040E031E0282F2871283109F030E046
:101E2000431711F029E0822794FD877E089580E012
:101E30000895CF939C01205E3245C1E020323105E8
:101E400038F4FB01C581C11103C08F710E941903D1
:101E50008C2FCF910895089590E080E00E949A24FD
:101E600021E0833E9E4F09F020E0822F089563EE2B
:101E70007EEF90E080E00C94C8246FEF7FEF90E05D
:101E800080E00C94C824CF93DF93EC0182E090E0D3
:101E90000E9492248883DF91CF910895FC01608194
:101EA00082E090E00C94AE2483E090E00C949224C5
:101EB000682F83E090E00C94AE24CF93DF93EC0185
:101EC00084E090E00E949A2499838883DF91CF91E7
:101ED0000895FC016081718184E090E00C94C82435
:101EE000AB01BC018FE090E00C94C024AB01BC01BD
:101EF00083E190E00C94C024682F8EE090E00C9475
:101F0000AE240895FECF08950895FECF0895E82FDA
:101F1000F0E0EE0FFF1FEE55FD4F80819181089597
:101F2000089580EA8A95F1F7089500C00895F9CFE1
:101F30000895F894E82FE295EF70F0E031A1282F92
:101F40002F7081E090E001C0880F2A95EAF7982F62
:101F50009095932391A392A1892B82A378940895BD
:101F6000CF93DF9380E3E5DF81E3E3DF82E3E1DF2B
:101F700087E6DFDFC1E9D1E089918F3F09F0D9DF42
:101F800081E0CD39D807C1F7DF91CF910895AF92A5
:101F9000BF92DF92EF92FF920F931F93CF93DF9345
:101FA0008C01D62EC62FD0E0CE0183569E4F7C01E9
:101FB000FC0120812F3F09F44AC0F894E22FE295FA
:101FC000EF70F0E031A12F7081E090E001C0880F48
:101FD0002A95EAF7932F982B91A392A180958923B4
:101FE00082A37894A2DFE1E9F1E04DE951E021E03C
:101FF00030E0B12CA12C61916F3F99F1A62FA295F1
:10200000AF70B0E090968C9190E06F7002C09595A3
:1020100087956A95E2F780FD24C0C901A82AB92AEC
:10202000220F331F4E175F0731F7F70180818F3F73
:1020300009F07FDF61E0A114B10409F460E08D2DA7
:1020400076DFCC0FDD1FC00FD11FB982A882DF91D0
:10205000CF911F910F91FF90EF90DF90BF90AF90C5
:10206000089590E080E0DACF7BDF88E0E2EAF2E0FA
:10207000DF01982F1D929A95E9F7EAE9F2E0DF0176
:102080001D928A95E9F784E039D03CCFA8E0B0E012
:10209000ECE4F0E10C943E248E010F5F1F4F88E0CA
:1020A000F80111928A95E9F7F12C6F2DC8016FDFC5
:1020B000F394F4E0FF12F9CF48E050E0B8018AE968
:1020C00092E00E947C2421E0009709F420E0892B13
:1020D00041F088E0F801AAE9B2E001900D928A95FA
:1020E000E1F744E062EA72E08AE992E008D0182F52
:1020F0000CDF812F2896E5E00C945A240895B0E077
:10210000A0E0E5E8F0E10C943B246C017B01042F96
:10211000C22F222379F081E0809377020E94DC1C99
:10212000909376028093750280E0CDB7DEB7E8E049
:102130000C945724D0917702DD23B1F3809175027E
:10214000909176020E946D1C059770F310E0000FCD
:10215000111FA801B601C7010E947C24892B31F010
:10216000A801B601C7010E948924CD2F10927702E1
:102170008C2FDBCFD9CB08950E94761C0E94AC1E19
:10218000A9DB0E94C41EC7DB0E94CD1E0E94D01E88
:10219000F1DF0E94E61E0E94951DAADBF7CF909307
:1021A000B1018093B00108950C94C81A08953BCBF7
:1021B000089580E0ACDE8170089568DF2FEF86E738
:1021C00091E0215080409040E1F700C000005EDFC8
:1021D000F0DF882319F0EBDF0C94181D0895EDCF84
:1021E0000895A1E0B0E0E7EFF0E10C943D247C011C
:1021F000FC0160817181828193818E010F5F1F4F8D
:1022000021E030E040E050E09AD1F70180819181F7
:10221000A281B3810196A11DB11D80839183A28308
:10222000B38389812196E6E00C94592486E00895D1
:10223000CDC00895FAC008951F93CF93DF93C4D003
:10224000D0E0C0E010C0412F6C2F8D2F0E9489027A
:102250009C01412F6C2F8D2FE8D01F5F1C3099F708
:10226000CF5FC43011F010E0EECFDF5FD63049F71A
:10227000DF91CF911F9108950F931F938A019B01C6
:1022800050E040E0BC0190E080E0F5D01F910F915C
:1022900008950F931F938A019B0150E040E0BC0119
:1022A00090E080E016D11F910F910895863028F4B8
:1022B000643018F44C3008F489C090E080E0089550
:1022C00080E1089537D1CB0108950F931F938A01C0
:1022D0009B0150E040E0BC0190E080E030D11F91D4
:1022E0000F9108950F931F938A019B0150E040E0E6
:1022F000BC0190E080E059D11F910F91089565D005
:1023000098C14F925F926F927F92BF92CF92DF926D
:10231000EF92FF920F931F93CF93DF9300D000D0E3
:10232000CDB7DEB7B82E8FE08B1518F103D1615011
:102330007109810991098E010F5F1F4F21E030E083
:1023400040E050E0FCD08981811113C0F3D02B0113
:102350003C01C12CD12C7601B1101DC0C982DA829A
:10236000EB82FC8240E0BE016F5F7F4F81EF90E126
:10237000ACD50F900F900F900F90DF91CF911F91E0
:102380000F91FF90EF90DF90CF90BF907F906F9074
:102390005F904F900895C414D504E604F70449F300
:1023A0008E010F5F1F4F21E030E040E050E0C70199
:1023B000B601C5D08981811101C0BA948FEFC81AC6
:1023C000D80AE80AF80AC8CF089508950F931F9312
:1023D000CF93DF93863030F5643020F54C3010F524
:1023E000C42FD0E0CC0FDD1F28E1629FC00DD11DAE
:1023F000112430E6839FC00DD11D1124CE01899692
:102400000E949224082F10E0102F0027CE018A96F8
:102410000E9492249801282BC901DF91CF911F912E
:102420000F91089590E080E0F8CF1F93CF93DF9352
:10243000122F8630E0F46430D0F44C30C0F4C42F56
:10244000D0E0CC0FDD1F98E1699FC00DD11D112494
:1024500090E6899FC00DD11D1124632FCE0189966E
:102460000E94AE24612FCE018A960E94AE24DF9195
:10247000CF911F910895B0E0A0E0E1E4F2E10C9467
:1024800037246B017C01E8014B015C01820E931E35
:10249000A41EB51EC6018996C814D904EA04FB041B
:1024A00029F4CDB7DEB7ECE00C94532420E4C21637
:1024B00022E0D206E104F10450F40E9492248883C1
:1024C00021968FEFC81AD80AE80AF80AE3CF1882D3
:1024D000F7CFB0E0A0E0EFE6F2E10C9437246B0117
:1024E0007C01EB014B015C01820E931EA41EB51E04
:1024F0009601C6018996C814D904EA04FB0429F49C
:10250000CDB7DEB7ECE00C94532440E4C41642E0AF
:10251000D406E104F10440F42C1B3D0BF801E20F5A
:10252000F31F60810E94AE248FEFC81AD80AE80A10
:10253000F80ADECF67E971E080E090E00895B0E04E
:10254000A0E0E5EAF2E10C9433246B017C0129015F
:102550003A014B0127E9821A2DEF920AD0E0C0E040
:10256000C4018C0F9D1FAE0170E060E0441555055D
:102570006605770528F0CDB7DEB7E0E10C944F246F
:102580004C0D5D1D6E1D7F1D5801AC0EBD1E4739E3
:1025900051406105710530F40E949224F501808359
:1025A0002196DECFF5011082FBCF4F925F926F92A2
:1025B0007F92AF92BF92CF92DF92EF92FF920F93F2
:1025C0001F93CF93DF936B017C0129013A015B01DB
:1025D00027E9A21A2DEFB20AD0E0C0E0C5018C0FA6
:1025E0009D1FAE0170E060E0441555056605770556
:1025F00078F0DF91CF911F910F91FF90EF90DF90D6
:10260000CF90BF90AF907F906F905F904F90089564
:102610004C0D5D1D6E1D7F1D4739514061057105D3
:1026200030F4F801EC0FFD1F60810E94AE2421966A
:10263000D5CFA0E1B0E0EFE1F3E10C943324CE017B
:1026400001965C0180E1F50111928A95E9F70AE1B2
:1026500010E097E9492E55245394612C712C29E6FA
:10266000822E22E0922E6201F1E14F1651046104A4
:1026700071042CF080E1C82ED12CE12CF12CA601A4
:10268000B401C5010E949F248C0C9D1C0D2C000CD4
:10269000EE08FF084C185D086E087F08015011090C
:1026A00011F76096E0E10C944F24CF93DF93EB0198
:1026B00086319C4709F50E94E80A9D81992391F093
:1026C0008A7A91E009F490E090937802811108C031
:1026D00089E20E94811B27D880E0DF91CF91089585
:1026E00085E3F7CF80917802811104C089E20E94CE
:1026F000981BF1CF85E3FBCF81E0EFCFCF93DF9342
:10270000EC01FB018581882309F4CDC09E0130577F
:102710002332310508F0ADC088E992E091D8FE017E
:10272000E150F047E232F10520F4E651FB4D0C9404
:1027300024248091980281608093980293C08091B4
:1027400099028860809399028DC08091980282607E
:10275000F3CF809198028460EFCF809198028860D7
:10276000EBCF809199028160EDCF809199028260D8
:10277000E9CF809198028061DFCF809198028062DA
:10278000DBCF809198028064D7CF0E94BE068091F3
:1027900098028068D1CF809198028C60CDCF8091D3
:1027A00099028360CFCF809198028E7FC5CF8091B0
:1027B0009902877FC7CF809198028D7FBDCF80918E
:1027C00098028B7FB9CF80919802877FB5CF809197
:1027D00099028E7FB7CF809199028D7FB3CF809180
:1027E00098028F7EA9CF809198028F7DA5CF80918E
:1027F00098028F7BA1CF0E94BE06809198028F77AE
:102800009BCF80919802837F97CF809199028C7F94
:1028100099CF8091980282FB992790F921E0922725
:1028200090FB82F990FB83F987CF80919902982FD2
:10283000909591708E7F892B90FB81F983CF909139
:102840009802892F8F7B96FF806476CF0E94BE0608
:1028500090919802892F97FB87F980586DCF81E07E
:102860000E94240C88E992E00E94220C0E94BE067D
:1028700080E0DF91CF91089580E0F2CF90919802AF
:10288000892F8F7E94FF806157CF90919802892F76
:102890008E7F90FF816050CF90919902892F877F22
:1028A00093FF88604FCF81E0E4CF282F35EB2303DF
:1028B000C001112497FF04C080589109892F089501
:1028C00080589F4FFBCF80917F0280FF0DC06091A9
:1028D000090170E0660F771F6038710570F56115AA
:1028E000710569F1862F089581FF07C06091090184
:1028F00084E0689FB0011124EFCF6091090182FD4F
:102900000AC080917E028823A9F02091080160917D
:102910000901821710F088E0ECCF869FC0011124D6
:1029200033E0880F991F3A95E1F7622F70E00E941B
:102930001124D2CF68E070E0D5CF8FE7089581E011
:10294000089580917F0280FF0CC06091050170E0C6
:1029500075956795759567956115710549F1862F90
:10296000089581FF06C06091050170E07595679537
:10297000F3CF6091050182FD0BC090917D029923F8
:10298000A1F06091040180910501961738F0682F3D
:1029900070E06038710500F38FE70895899FC001EA
:1029A000112470E00E941124F4CF61E070E0D7CFD1
:1029B00081E008958D3C29F486DF81958093830220
:1029C00008958E3C11F47FDFF9CF8F3C29F47BDF33
:1029D0008195809382020895803D11F474DFF9CFD0
:1029E000893D21F4AEDF8093840208958A3D19F475
:1029F000A8DF8195F8CF8B3D29F4A3DF81958093E3
:102A0000850208958C3D11F49CDFF9CF9FE2980F69
:102A1000983070F4815D990B21E030E001C0220F05
:102A20008A95EAF780918102822B80938102089532
:102A30008D3D31F480917F02816080937F02089503
:102A40008E3D21F480917F028260F7CF8F3DB9F7F0
:102A500080917F028460F1CF409182028D3C59F4D5
:102A60008091830287FF0DC01092830241110BC039
:102A700010927E0208C08E3C81F480918302181669
:102A80009CF3442381F08091840290918502892BEC
:102A900009F05AC010927D0208958F3C49F447FF17
:102AA000F0CF10928202809183028111ECCFE0CFAF
:102AB000803D19F41416ACF3E4CF90918402893D63
:102AC00029F41916F4F610928402DBCF8A3D19F42A
:102AD00097FFD7CFF8CF909185028B3D29F497FFD0
:102AE000D0CF10928502CDCF8C3D19F41916CCF3BE
:102AF000C8CF9FE2980F983090F4815D990B21E048
:102B000030E0B90102C0660F771F8A95E2F7CB016A
:102B1000809590918102892380938102B2CF8D3D6F
:102B200031F480917F028E7F80937F02AACF8E3D09
:102B300021F480917F028D7FF7CF8F3D09F0A1CFE7
:102B400080917F028B7FF0CF089536D79C019091C2
:102B5000820280918302982B21F030937C02209393
:102B60007B029091840280918502982B21F0309312
:102B70007A022093790280E892E0AAC486E0E0E835
:102B8000F2E0DF011D928A95E9F710927E02109221
:102B90007D0210927F020895FC01828181110EC096
:102BA000838181110BC08481811108C091E08581EE
:102BB000811101C090E0892F8170089581E0FCCFE0
:102BC000A6E0B0E0E6EEF5E10C94402486E0E0E813
:102BD000F2E0DE01119601900D928A95E1F71092D4
:102BE00082021092830210928402109285028B81DD
:102BF0009C81892B81F080917B0290917C026DD623
:102C0000AC0190917E029923A9F180910A01841769
:102C1000150608F43CC08D819E81892B89F0809136
:102C2000790290917A0259D6AC0190917D02992354
:102C300009F463C0809106018417150608F46BC07F
:102C4000BE016F5F7F4F80E892E0A2D5811104C082
:102C500080E892E0A1DF811178DF86E0FE01319605
:102C6000A0E8B2E001900D928A95E1F72696E3E0A4
:102C70000C945C2420910B018AE0289F9001112480
:102C80002417350740F69F5F90937E0202C09F3F56
:102C9000D1F71B81112351F016DE9FEF11160CF4B2
:102CA00091E0899F802D1124809382021C81112341
:102CB00051F009DE9FEF11160CF491E0899F802DF1
:102CC00011248093830280918202882309F4A3CF88
:102CD00010918302112309F49ECFE7DD882349F088
:102CE00080938202812FE1DD882329F08093830283
:102CF00092CF81E0F5CF81E0F9CF209107018AE002
:102D0000289F900111242417350708F099CF9F5F61
:102D100090937D0202C09F3FD1F71D81112351F096
:102D200010DE9FEF11160CF491E0899F802D112485
:102D3000809384021E81112351F003DE9FEF111650
:102D40000CF491E0899F802D11248093850280915D
:102D50008402882309F474CF10918502112309F4A9
:102D60006FCFA3DD882349F080938402812F9DDDFE
:102D7000882329F08093850263CF81E0F5CF81E03D
:102D8000F9CFB0E0A0E0E7ECF6E10C943A24E82FAC
:102D9000F0E0E45DFD4FB490282F2695269526950A
:102DA00030E0F901E453FD4F0491877010E0082EE4
:102DB00002C0159507950A94E2F701701127F901F1
:102DC000E454FD4FE490F12C082E02C0F594E794F2
:102DD0000A94E2F791E0E922FF24F901E455FD4F5E
:102DE000C491D0E002C0D595C7958A95E2F7C1702D
:102DF000DD27C62ED12C0115110549F5E114F1048A
:102E000031F086EE0E942504C601009771F5B601E7
:102E10008B2D0E949704C601009779F5E114F10407
:102E2000A1F50115110531F081EE0E946A04C60179
:102E30000097C9F5CD2B31F08CE20E94AD04C1148E
:102E4000D104C9F5CDB7DEB7E9E00C94562481EE84
:102E50000E942504C601009789F2EFE9FFE031974F
:102E6000F1F700C000000197F6CFEFE9FFE03197DE
:102E7000F1F700C000000197C8CFEFE9FFE03197FC
:102E8000F1F700C000000197C7CF86EE0E946A04E8
:102E9000C601009731F2EFE9FFE03197F1F700C08A
:102EA00000000197F6CFEFE9FFE03197F1F700C09E
:102EB00000000197BDCF8FE99FE00197F1F700C0B7
:102EC000000091E0C91AD108BACFB0E0A0E0EBE66B
:102ED000F7E10C943A248C017B01D42F8AE0B82EC0
:102EE000C701F80109958823A9F0813009F058C07D
:102EF000C701F8010995C82F813089F4C701F8018D
:102F000009950E94AD048D2F90E0009709F040C014
:102F1000C111E6CFCDB7DEB7E9E00C94562482307C
:102F200031F4C701F80109950E942504ECCF8330E4
:102F300031F4C701F80109950E946A04E4CF843096
:102F400011F7C701F8010995C82FD12CC12C2C2FDE
:102F50002053330BC9012A30310568F0C114D10464
:102F600091F28FE99FE00197F1F700C0000091E036
:102F7000C91AD108F3CFBC9C9001BD9C300D11241F
:102F80006C01C20ED31EC701F8010995C82FDFCF0F
:102F9000EFE9FFE03197F1F700C000000197B5CFEE
:102FA0006D2FEFDE9DCF0F931F93CF93DF93C42F31
:102FB000D22FFC0185818823C1F040938802FCD484
:102FC000909387028093860280E28C0F883040F4D1
:102FD000C77081E001C0880FCA95EAF70E94B40467
:102FE000DF91CF911F910F910895109188021413D2
:102FF00031C080918602909187026FD4883C910500
:1030000048F5C0E2CD0F1D17B9F080E2810F88307E
:1030100040F4177081E001C0880F1A95EAF70E940A
:10302000B904C83048F481E09D2F977001C0880F23
:103030009A95EAF70E94B404802F0E94AD04C8302C
:1030400078F6D77081E001C0880FDA95EAF70E9420
:10305000B904C6CF80E28C0F883010F6C77081E0CB
:1030600001C0880FCA95EAF7F2CF0F93DB018851B0
:103070009C478730910598F5FC01E45FFA4D0C946C
:10308000242406E221EE41EE6AE17CE7CD018BDFEC
:1030900080E00F91089507E225EE45EE6BE17CE7B5
:1030A000F5CF06E221EE40EE68E17CE7EFCF07E2E4
:1030B00025EE44EE69E17CE7E9CF06E221EE42EE3F
:1030C0006CE17CE7E3CF07E225EE46EE6DE17CE7BD
:1030D000DDCF08E221E045EE6EE17CE7D7CF159623
:1030E0008C91882319F010928802D3CF81E0D1CF40
:1030F0001F93CF93DF9387372CE7920751F0C1E0FE
:1031000088379C47B9F4FB01C581CC2329F129D02C
:1031100005C0FB01C581CC2391F020D00E94260779
:1031200023D0D82F1ED0C82F19D04D2F6C2F0E941E
:103130003708C0E08C2FDF91CF911F9108950ED0FA
:103140000E94300711D0182F0CD0D82F07D0412F54
:103150006D2F0E943708EECF04D0F2CF80910E0180
:10316000089580910D01089580910C010895A3E0C8
:10317000B0E0EDEBF8E10C944124AE014F5F5F4FFE
:10318000BE016E5F7F4FCE0103961FD18B818532CA
:1031900039F48A81863021F481E09981983009F0F0
:1031A00080E081702396E2E00C945D24882321F076
:1031B00048E066E085E22FC14FEF6FEF8FEFFBCF66
:1031C00008950895CF92DF92EF92FF926B017C01F8
:1031D000F8DFC701B6013ED1FF90EF90DF90CF90AE
:1031E0000895F2D080E0E2DF60E070E0CB01EADF3A
:1031F00023D885D881E0DACFE3DF23D1E2DFB7DF60
:10320000811101C0EECF089508959C01FB018581D5
:10321000882349F0A90157574038510528F4822FD7
:1032200070D880E0089581E008952FEFFC0120839D
:103230000895FBCF089580E00895B0E0A0E0E3E2B8
:10324000F9E10C943B24EC01C62EF5DF811110C08E
:10325000E881E150E331B8F4F0E0ED5EFA4D0C9412
:10326000242419828CE08A836C2DCE010E94D41014
:10327000CDB7DEB7E8E00C94572489818230B9F0ED
:1032800028F4813061F08FEF8883EECF833089F0AE
:103290008430C9F71A821B821C821D82E5CF98D325
:1032A0000E942A246A837B838C839D83DDCFC9D0CF
:1032B000F7CF8A81082F10E07E019EE0D92ED80E2C
:1032C0000430110588F6802F0E94870FF701938341
:1032D00084830F5F1F4FF2E0EF0EF11CD012F0CF8E
:1032E000C3CF8981823029F0853069F68A818CDFED
:1032F000BBCF6A817B818C819D810E942A2462DF01
:10330000B3CF4B816A8189810E9418119827892740
:1033100098279D838C83A8CF2C813D81322723273A
:1033200032274B816A8189810E941A119DCF0E94A8
:103330001C119ACF6C2DCE017CDF96CF0E946011BC
:10334000898392CF0E9462119827892798279A83B0
:1033500089838ACF6B8170E089819A81AE014C5F4D
:103360005F4F9827892798270E9465117DCF6B8131
:1033700070E089819A81AE014C5F5F4F9827892761
:1033800098270E94721170CF0E947F116DCF0E940A
:103390001611D6CF6B8170E089819A81AE014C5FA6
:1033A0005F4F9827892798270E943C115DCF6B813A
:1033B00070E089819A81AE014C5F5F4F9827892721
:1033C00098270E94491150CF0895EF92FF920F93D2
:1033D0001F93CF93DF937C018B01EA01892B31F09E
:1033E00085E290E00E949224F70180830115110587
:1033F00031F086E290E00E949224F80180832097C9
:1034000029F087E290E00E9492248883CDB7DEB74E
:10341000E6E00C945924CF93DF93D62FC42F682F66
:1034200085E290E00E94AE246D2F86E290E00E943B
:10343000AE246C2F87E290E00E94AE24DF91CF9102
:10344000089588E290E00E949224682F70E090E056
:1034500080E0089588E290E00C94AE2490938E0270
:1034600080938D020895FFD191E0813009F090E0C2
:10347000892F0895E0918D02F0918E02309739F0F6
:103480000190F081E02D309711F00995089580E0CA
:103490000895E0918D02F0918E02309731F0028014
:1034A000F381E02D309709F009950895E0918D02A0
:1034B000F0918E02309759F024813581232B39F019
:1034C00026E0DC012C930480F581E02D0995089518
:1034D000E0918D02F0918E02309759F0268137816C
:1034E000232B39F022E0DC012C930680F781E02DBC
:1034F00009950895A3E0B0E0E0E8FAE10C944124D6
:1035000020918B0230918C0228173907B1F09093EB
:103510008C0280938B02E0918D02F0918E023097A5
:1035200061F00084F185E02D309739F023E02983A4
:103530009B838A83CE01019609952396E2E00C9441
:103540005D24A3E0B0E0E7EAFAE10C944124209185
:10355000890230918A0228173907B1F090938A02C4
:1035600080938902E0918D02F0918E02309761F094
:103570000084F185E02D309739F024E029839B8386
:103580008A83CE01019609952396E2E00C945D248E
:10359000E0918D02F0918E02309731F00284F38534
:1035A000E02D309709F009950895CF93DF93C091EE
:1035B0000201D0910301229656DF882381F0809189
:1035C000980287FF0CC0C0910001D09101012296A2
:1035D0009EE180E0915028F4DF91CF91089596E02C
:1035E000F8CF29912223B1F38F5FF4CFCF93C82F67
:1035F000811102C080E023C036DF882311F1809161
:10360000980287FF1EC0EC2FE695E695E695EE3111
:1036100088F78091000190910101E80FF92FF11DC9
:10362000228130E0C77081E090E002C0880F991FCE
:10363000CA95E2F72823392381E0232BD9F2CF91D1
:1036400008958091020190910301FC013296089641
:1036500021912C1721F0E817F907D1F7CBCF81E0A2
:10366000EECF9C01FC0132969FEF80E0419146171E
:1036700051F09F3F19F4411101C0982F8F5F8630A0
:10368000A9F79F3F09F40895290F311D97FD3A9539
:10369000F90162830895FC01329608962191261360
:1036A00003C0DF0111971C92E817F907B9F70895D5
:1036B000E62FE695E695E695EE3168F4E80FF92FEA
:1036C000F11D677021E030E001C0220F6A95EAF732
:1036D0008281822B82830895E62FE695E695E69512
:1036E000EE3170F4E80FF92FF11D677021E030E042
:1036F00001C0220F6A95EAF7209582812823228350
:103700000895CF93C82FAFDE6C2F882359F0809196
:10371000980287FF07C08091000190910101C8DFE6
:10372000CF91089580910201909103019ADFF8CF23
:10373000CF93C82F98DE6C2F882359F08091980280
:1037400087FF07C08091000190910101C5DFCF91F3
:10375000089580910201909103019DDFF8CF83DEEF
:10376000882379F08091980287FF0BC0E0910001D7
:10377000F091010132968EE1DF011D928A95E9F701
:103780000895E0910201F0910301329686E0F4CFB2
:10379000DC01FB0111969C9111978181981322C045
:1037A00012968C911297882319F0928189131AC06E
:1037B00013968C911397882319F09381891312C063
:1037C00015968C911597882319F0958189130AC055
:1037D00014969C91992321F081E02481291303C040
:1037E00080E001C081E0817008950895FECF0895C2
:1037F00081110CC081E08093120160910F017091E2
:1038000010018091110190911201F0CF82E0F3CF6D
:1038100083E08093120160910F01709110018091FB
:10382000110190911201E2CFE3CF089581E08093DE
:10383000120160910F01709110018091110190911E
:103840001201D4CFF3CF089591E0811101C090E02F
:103850009093110160910F017091100180911101FD
:1038600090911201C3CF80911101089580931001AE
:1038700060910F01709110018091110190911201DE
:10388000B5CF80911001089580930F0160910F01D1
:10389000709110018091110190911201A7CF809138
:1038A0000F01089508950895FECF0895089508958D
:1038B000F9CF0895CF93FADF0E944610F8DFC0E0F9
:1038C0008C2F0E94870F892B31F4CF5FC430C1F752
:1038D00080E0CF91089581E0FCCFCF93DF93EC019E
:1038E0006BD08C1B9D0BDF91CF91089585B78068BD
:1038F00085BF85B7806885BF08951F921FB61F9248
:1039000011248F939F93AF93BF9380918F02811166
:1039100013C08091AA029091AB02A091AC02B09129
:10392000AD024196A11DB11D8093AA029093AB02F6
:10393000A093AC02B093AD02BF91AF919F918F91D4
:103940001F901FBE1F9018958091B202843031F1F4
:103950000E94AF0310928F0288E190E020E40FB63E
:10396000F894A895809360000FBE2093600083B701
:10397000817F846083BF83B7816083BF789488959B
:1039800083B78E7F83BF0FB6F894A89580916000AF
:10399000886180936000109260000FBE08950E94BD
:1039A000BE060C94B30382E084BD93E095BD9AEF0C
:1039B00097BD80936E0008952FB7F8948091AA0266
:1039C0009091AB02A091AC02B091AD022FBF0895CF
:1039D0002FB7F8946091AA027091AB028091AC026B
:1039E0009091AD022FBF089578941F921FB61F9239
:1039F00011248F939F93AF93BF938091AA029091CC
:103A0000AB02A091AC02B091AD020196A11DB11D17
:103A10008093AA029093AB02A093AC02B093AD0244
:103A2000BF91AF919F918F911F901FBE1F901895CE
:103A300081E08093E00080E28093D8001092C9007A
:103A40008FE19EE40197F1F700C0000087E090EB62
:103A5000DC018093BB029093BC02A093BD02B093A3
:103A6000BE0288E19CE00FB6F894A89580936000B0
:103A70000FBE90936000FFCF88E19CE00FB6F894F2
:103A8000A895809360000FBE90936000FFCF9B01CC
:103A9000BA019091B2029430E1F48F708093E90002
:103AA0009FEF8091E800915085FD06C085ED8A95D5
:103AB000F1F700009111F5CF8091E80085FF09C072
:103AC00050E040E0C901F6D18091E8008E77809304
:103AD000E8000895603229F440E250E0BC0182E041
:103AE000D6CF089543E050E0BC0184E0D0CF46E05B
:103AF00050E0BC0184E0CBCF40E250E0BC0184E068
:103B0000C6CFCF93DF93EC01AEDE48E050E0BE01BC
:103B100081E0BDDF88E0FE01A0E9B2E001900D92F6
:103B20008A95E1F7DF91CF910895A0E2B0E0EAE94C
:103B3000FDE1A7C68091B2028430F9F483E080935E
:103B4000E9008091E80082FF18C08091E80090E0D1
:103B500085FF08C050E040E060E270E0CE010196D1
:103B6000F6D191E08091E8008B778093E80099236B
:103B700021F060E2CE01019660DBA096E2E09DC6F6
:103B80008091B102811107C070D3C7D38091E20048
:103B900084608093E20008951092B102089546DE99
:103BA00081E052CE6091AE0281E0611101C080E0FF
:103BB0002FCE9091B20281E0943009F080E06091C4
:103BC000AE0232CE42E061EC81E0CBD242E261EC67
:103BD00084E0C7D242E261EC82E0C3D242E260EC10
:103BE00083E0BFD29091B20281E0943009F080E08E
:103BF0006091AE02FDCD8091B402833009F460C0C3
:103C000030F48130D1F1823009F496C008958A30C1
:103C100009F485C08B3009F46DC0893009F04FC0BC
:103C20008091B302813209F04AC08091B70290912D
:103C3000B802009719F0029709F041C08091E8009E
:103C4000877F8093E8008091E80082FF34C09091E4
:103C5000F3008091F200029731F48091F1008130FD
:103C600011F0863019F48091F10000DE8091E800B7
:103C70008B778093E800A9D222C08091B302813A69
:103C8000F1F48091E800877F8093E8008091B7028B
:103C90009091B802892B59F468E080E992E070E0D5
:103CA000A3D18091E8008B778093E800089560E0CD
:103CB00090E080E0F4CF8091B2028111C4CF0895EA
:103CC0008091B302813AD9F78091B7029091B802FE
:103CD000892BA9F78091E800877F8093E800809185
:103CE000E80080FFFCCFBFDD8093F1008091E80009
:103CF0008E77BFCF8091B302813209F78091B702EE
:103D00009091B802892BD9F68091E800877F809343
:103D1000E8005BD28091B50297DD0C94BE068091DD
:103D2000B302813261F68091E800877F8093E800DA
:103D30004CD28091B602A8CD8091B302813A09F0AD
:103D4000BECF8091E800877F8093E8008091E800F3
:103D500080FFFCCFA4DDC8CF84B7877F84BF0FB6B8
:103D6000F894A8958091600088618093600010921B
:103D700060000FBE80E890E00FB6F8948093610079
:103D8000909361000FBE5ECD70D2C7D2E2EEF0E03C
:103D900080818460808378942AC583E191E05ECB42
:103DA0008091B202853029F48091B202853011F001
:103DB000F6CD0895C9DD7EDD8823B1F38091B00290
:103DC000882391F361D00E94BE06EECF08959A0138
:103DD0004091B9025091BA0200C0492F5527433093
:103DE000510521F168F44130510509F443C04230D6
:103DF000510509F444C090E080E050E040E026C066
:103E00004132510551F142325105A9F76330710534
:103E100090F7FB01EE0FFF1FEC55FE4F40815181E3
:103E20006F557E4FFB01808190E010C09927813053
:103E3000910581F0009729F00297E9F6ECEDF2E0A8
:103E400002C0E2E1F3E0849190E0AF01F901518317
:103E500040830895ECEFF2E0F6CF6330710558F639
:103E6000660F771FFB01E655FE4F4081518189E0C7
:103E700090E0ECCF82E190E041E753E0E7CF8BE5C3
:103E800090E046E153E0E2CF80E189BD82E189BD67
:103E900009B400FEFDCF8091D8008F7D8093D800BB
:103EA0008091E00082608093E0008091E00081FDDD
:103EB000FCCF0895AF92BF92CF92DF92FF920F9303
:103EC0001F93CF93DF936C01EB018A019DD1F82EF4
:103ED000811123C00115110539F0F801808191810C
:103EE000C81BD90BC80ED91EB12CA12C2097A9F044
:103EF0008091E80085FD21C08091E8008E77809355
:103F0000E80001151105A1F0F80180819181A80E4A
:103F1000B91EB182A08285E0F82E8F2DDF91CF915E
:103F20001F910F91FF90DF90CF90BF90AF900895B9
:103F30006BD18823D9F2F82EF0CFF60181916F0171
:103F40008093F1002197FFEFAF1ABF0ACFCFAF9256
:103F5000BF92CF92DF92FF920F931F93CF93DF9385
:103F60006C01EB018A0150D1F82E811123C001159B
:103F7000110539F0F80180819181C81BD90BC80E59
:103F8000D91EB12CA12C2097A9F08091E80085FDC5
:103F900021C08091E8008B778093E800011511051E
:103FA000A1F0F80180819181A80EB91EB182A08292
:103FB00085E0F82E8F2DDF91CF911F910F91FF900B
:103FC000DF90CF90BF90AF9008951ED18823D9F293
:103FD000F82EF0CF8091F100F60181936F012197C7
:103FE000FFEFAF1ABF0ACFCFFC018091B9029091C9
:103FF000BA0286179707A0F06115710529F4909110
:10400000E8009E779093E80090E06115710551F407
:10401000911108C08091E80082FF34C080E00895CB
:10402000BC01F2CF8091B2028823C1F18530C1F189
:104030008091E80083FD30C08091E80082FDEACFE6
:104040008091E80080FFE1CF8091F3002091F200A1
:10405000382F6115710519F02830310558F091E0BD
:104060002830310509F090E02091E8002E77209368
:10407000E800CBCF81918093F100615071092F5FEF
:104080003F4FE7CF8091B202882341F0853041F065
:104090008091E80083FFBECF81E0089582E008951B
:1040A00083E00895FC018091B9029091BA028617CD
:1040B0009707A0F06115710529F48091E8008E77CB
:1040C0008093E80090E06115710551F4911108C0EA
:1040D0008091E80082FF35C080E00895BC01F2CFF6
:1040E0008091B2028823C9F18530C9F18091E8003E
:1040F00083FD31C08091E80082FDEACF8091E80025
:1041000080FFE1CF8091F3002091F200382F6115FC
:10411000710519F02830310558F091E0283031054B
:1041200009F090E08091E8008E778093E800CBCF93
:1041300084918093F1003196615071092F5F3F4F58
:10414000E6CF8091B202882341F0853041F0809122
:10415000E80083FFBDCF81E0089582E0089583E009
:104160000895982F973028F08F708093E90081E0B0
:1041700008959093E900242F762F50E0981731F09E
:104180007091EC002091ED005091F00021FD02C0F3
:104190009F5FE8CF3091EB003E7F3093EB00309192
:1041A000ED003D7F3093ED003091EB0031603093B6
:1041B000EB007093EC002093ED005093F000209101
:1041C000EE0027FDE5CF80E008958091B30287FFE0
:1041D00013C08091E80082FF06C08091E8008B77D1
:1041E0008093E80004C08091B2028111F2CF08955B
:1041F0008091B2028823D9F38091E80080FFF8CF44
:104200008091E8008E77ECCF2091E4003091E500BA
:1042100095E6A9012091EC00822F817020FF06C055
:104220008091E80080FF06C080E008952091E800BA
:1042300022FD1AC08091B202882389F0853089F06E
:104240008091EB0085FD0FC02091E4003091E500E6
:1042500042175307F9F29150E1F684E0089582E0A5
:10426000089583E0089581E0089567D06ED0E0EE70
:10427000F0E0808181608083E8EDF0E080818F77DD
:10428000808319BCA7EDB0E08C918E7F8C938081E8
:104290008F7E80831092B10208950F931F93CF9366
:1042A000DF934BD052D0C8EDD0E088818F778883E0
:1042B00088818068888388818F7D888319BC10926B
:1042C000B2021092AE021092B0021092AF0200EE53
:1042D00010E0F80180818B7F8083888181608883F2
:1042E00042E060E080E03DDFE1EEF0E080818E7F43
:1042F0008083E2EEF0E0808181608083808188604D
:104300008083F80180818E7F8083888180618883AB
:10431000DF91CF911F910F910895E8EDF0E080813A
:104320008F7E8083E7EDF0E080818160808384E090
:1043300082BF81E08093B102B0CFE8EDF0E08081F0
:104340008E7F80831092E20008951092DA0010921E
:10435000E10008951F920F920FB60F9211242F9330
:104360003F934F935F936F937F938F939F93AF93FD
:10437000BF93EF93FF938091E10082FF0AC0809189
:10438000E20082FF06C08091E1008B7F8093E10014
:104390002DD28091DA0080FF18C08091D80080FF74
:1043A00014C08091DA008E7F8093DA008091D9006A
:1043B00080FF91C080E189BD82E189BD09B400FE22
:1043C000FDCF81E08093B202DBDB8091E10080FFD2
:1043D00018C08091E20080FF14C08091E2008E7FBF
:1043E0008093E2008091E20080618093E2008091FE
:1043F000D80080628093D80019BC85E08093B20217
:10440000D1DB8091E10084FF2AC08091E20084FF2B
:1044100026C080E189BD82E189BD89B5982F917060
:1044200080FFFBCF8091D8008F7D8093D800809152
:10443000E1008F7E8093E1008091E2008F7E809387
:10444000E2008091E20081608093E2008091AE0200
:10445000882309F445C084E08093B202AADB8091EE
:10446000E10083FF27C08091E20083FF23C0809199
:10447000E100877F8093E10082E08093B202109296
:10448000AE028091E1008E7F8093E1008091E20096
:104490008E7F8093E2008091E20080618093E20051
:1044A00042E060E080E05DDE8091F0008860809313
:1044B000F00075DBFF91EF91BF91AF919F918F91CC
:1044C0007F916F915F914F913F912F910F900FBE10
:1044D0000F901F90189519BC1092B2025DDB75CF3A
:1044E0008091E30087FD93E09093B202B7CF1F92D3
:1044F0000F920FB60F9211242F933F934F935F9318
:104500006F937F938F939F93AF93BF93CF93DF93DB
:10451000EF93FF93D091E900DF708091EC00C82FFA
:10452000C17080FDC0E81092E9008091F000877FA3
:104530008093F00078941ED01092E9008091F000F2
:1045400088608093F000CD2BCF70C093E900FF917D
:10455000EF91DF91CF91BF91AF919F918F917F911B
:104560006F915F914F913F912F910F900FBE0F90E0
:104570001F901895AAE2B0E0EFEBF2E281C183EB65
:1045800092E02091F100FC012193CF01F2E08B3BFE
:104590009F07B9F730DB8091E80083FF16C1809157
:1045A000B3029091B4029A3008F00FC1E92FF0E005
:1045B000EA5DFA4D49C1803899F0823809F005C1A9
:1045C0008091B7028F70873008F0FFC08093E900B8
:1045D0008091EB0085FB882780F91092E90006C0E6
:1045E0008091AF029091B002911182609091E800A9
:1045F000977F9093E8008093F1001092F1008091F2
:10460000E8008E77DFC0882309F4CDC0823009F03E
:10461000DCC08091B5028111D0C08091B7028F704B
:104620002FEF280F263008F0D0C08093E9002091AA
:10463000EB0020FFC2C0933031F48091EB00806228
:104640008093EB00BAC09091EB0090619093EB00E7
:1046500021E030E001C0220F8A95EAF72093EA00BA
:104660001092EA008091EB008860EACF8111ADC022
:104670001091B5021F778091E3008078812B8093A1
:10468000E3008091E800877F8093E8009EDD8091C1
:10469000E80080FFFCCF8091E30080688093E30016
:1046A00082E0111183E08093B2028FC08058823083
:1046B00008F08BC08091B5029091B6028C3D23E04A
:1046C000920799F583E08A838AE289834FB7F89449
:1046D000DE01139620E03EE051E2E32FF0E050933C
:1046E0005700E49120FF03C0E295EF703F5FEF7049
:1046F0008E2F90E0EA30B8F0C7968D939D932F5F90
:10470000243159F74FBF8091E800877F8093E800FC
:104710006AE270E0CE01019667DC8091E8008B7759
:104720008093E80052C0C096E8CF6091B7027091C4
:10473000B802AE014F5F5F4F4ADBBC01892B09F421
:1047400044C09091E800977F9093E80089819A8116
:10475000A9DCE3CF8038C9F58091E800877F80939A
:10476000E8008091AE028093F10049CF81112DC005
:104770009091B502923048F58091E800877F809350
:10478000E8009093AE0221DD8091AE02882311F003
:1047900084E005C08091E30087FDFACF81E080933B
:1047A000B20210DA12C08091B502813071F481E05A
:1047B000933009F080E08093B0021092E90080917C
:1047C000E800877F8093E80000DD8091E80083FFA8
:1047D0000AC08091E800877F8093E8008091EB0019
:1047E00080628093EB00AA96E3E066C00895CF93C1
:1047F0008091B202882399F0C091E900CF70909126
:10480000EC00892F817090FD80E8C82B1092E900A0
:104810008091E80083FDAEDECF70C093E900CF91B8
:10482000089597FB072E16F4009406D077FD08D064
:104830004FD007FC05D03EF4909581959F4F089589
:10484000709561957F4F0895EE0FFF1F0590F491CD
:10485000E02D0994692796276927782787277827E5
:1048600008952F923F924F925F926F927F928F9214
:104870009F92AF92BF92CF92DF92EF92FF920F93EF
:104880001F93CF93DF93CDB7DEB7CA1BDB0B0FB6F9
:10489000F894DEBF0FBECDBF09942A8839884888B6
:1048A0005F846E847D848C849B84AA84B984C8844C
:1048B000DF80EE80FD800C811B81AA81B981CE0F43
:1048C000D11D0FB6F894DEBF0FBECDBFED01089528
:1048D000AA1BBB1B51E107C0AA1FBB1FA617B70726
:1048E00010F0A61BB70B881F991F5A95A9F7809542
:1048F0009095BC01CD010895FB01DC0104C08D91B0
:104900000190801921F441505040C8F7881B990B41
:104910000895FB01DC0102C001900D92415050400E
:10492000D8F70895F999FECF92BD81BDF89A9927DD
:1049300080B50895A8E1B0E042E050E02FC0DC016E
:10494000A40FB51F4150504040F0CB01840F951F7C
:104950002E9105D041505040D8F70895262FF9994F
:10496000FECF92BD81BDF89A019700B4021639F0CE
:104970001FBA20BD0FB6F894FA9AF99A0FBE08959F
:104980000396272FECDFEADF252FE9DF242FE7CF7F
:104990000196272FE4DFE2CFDC01CB01FC01F9997E
:1049A000FECF06C0F2BDE1BDF89A319600B40D927B
:1049B00041505040B8F70895F894FFCFFC04FC0430
:1049C000320532058B05A70524052405AB050A062B
:1049D00016061606D3134514DB13A513A913DF130C
:1049E000AD13E313EF13B9133E14BD13F313C11347
:1049F000F7131F14C513FB132614CB13011409144A
:104A0000B113E713B513EB13CF13051415142F14BB
:104A10003C149F13D7134C145118571841184B18B6
:104A20005D186318691831193D19711981198C19AC
:104A300097199A199A199A19431943199E19A21983
:104A4000AA19B719C419C719CA19D719DB22032320
:104A5000E5230323E52336235623E523AA23B623A0
:104A600038025802280850011E0A140103020100EE
:104A7000000100411C811D7C1D771D721D6A1DE215
:104A800000E900EA00B500B600B700CD008301CC14
:104A9000008A0192019401210223022402250226A8
:104AA0000227022A02B300B4006F0070009F01CBFE
:104AB000019F02A002818283E200E900EA00B500C2
:104AC000B600B700CD008301CC008A0192019401A9
:104AD0002102230224022502260227022A02B30011
:104AE000B4006F0070009F01CB019F02A002818281
:104AF00083F0F1F4F5F6F7663635349796303132B7
:104B0000674422B65B048303A503280341036103C2
:00000001FF
