:1000000036C6000051C600004FC600000C94972F62
:100010004BC6000049C6000047C6000045C60000A8
:1000200043C6000041C600000C94D71A0C94931AE2
:100030000C94752639C6000037C6000035C600008E
:1000400033C6000031C600002FC600002DC60000D8
:100050002BC600000C94BE1B27C6000025C600005E
:1000600023C6000021C600001FC600001DC60000F8
:100070001BC6000019C6000017C6000015C6000008
:1000800013C6000011C600000FC600000DC6000018
:100090000BC6000009C6000007C6000005C6000028
:1000A00003C6000001C60000FFC50000050109806D
:1000B000A101850319012AB700150126B700950192
:1000C00075108100C0050C0901A101850419012AE0
:1000D000A002150126A002950175108100C005013E
:1000E0000906A1018506050719E029E71500250184
:1000F0009508750181020507190029EF15002501F2
:1001000095F075018102050819012905950575010C
:100110009102950175039101C00660FF0961A1017B
:100120000962150026FF00952075088102096315F4
:100130000026FF00952075089102C005010906A15F
:1001400001050719E029E7150025019508750181CA
:10015000029501750881010507190029FF15002680
:10016000FF0095067508810005081901290515008D
:100170002501950575019102950175039101C02036
:100180002020206162636465666768696A6B6C6DD4
:100190006E6F707172737475767778797A313233E5
:1001A00034353637383930524542545F2D3D5B5D2A
:1001B0005C233B27602C2E2F202020000000000015
:1001C000000000000000000000000000000000002F
:1001D0000000000000000000000000000000007EA1
:1001E0000F00D4FFFFFFC7000000780000000000F0
:1001F0000000002A2B280000000000000000000082
:1002000000000000000029000000002C1E34202106
:100210002224342627252E362D3738271E1F20214D
:1002200022232425263333362E37381F04050607AC
:1002300008090A0B0C0D0E0F1011121314151617C6
:1002400018191A1B1C1D2F3130232D3504050607E4
:1002500008090A0B0C0D0E0F1011121314151617A6
:1002600018191A1B1C1D2F3130354C00DA0281FF82
:10027000D9F1DB20A4A62EAF00A0C0D30000A1C8F6
:10028000D30000AED580A81F408D1420001E0F059E
:1002900000047F3F1F643214643214783C1E1E1425
:1002A0000A05556E6465660041646A757374005290
:1002B00061697365004C6F776572004465666175AE
:1002C0006C74004C617965723A20003A002C206B06
:1002D000007800808182838485868788898A8B8CD8
:1002E0008D8E8F9091929394A0A1A2A3A4A5A6A76E
:1002F000A8A9AAABACADAEAFB0B1B2B3B4C0C1C2E5
:10030000C3C4C5C6C7C8C9CACBCCCDCECFD0D1D245
:10031000D3D4000001010101010101010102020227
:1003200002020202020203030303030303030404A1
:10033000040404040405050505050606060606076B
:100340000707070708080808090909090A0A0A0B24
:100350000B0B0C0C0C0D0D0D0E0E0E0F0F0F1010C5
:10036000111111121213131414151516161717184C
:100370001819191A1A1B1B1C1D1D1E1E1F202021B7
:100380002222232424252626272829292A2B2C2DFE
:100390002D2E2F30313232333435363738393A3B1F
:1003A0003C3D3E3F404142434445464748494A4C14
:1003B0004D4E4F50515354555658595A5B5D5E5FE0
:1003C000616264656668696B6C6D6F707273757776
:1003D000787A7B7D7E8082838587888A8C8E8F91D8
:1003E000939596989A9C9EA0A2A3A5A7A9ABADAF02
:1003F000B1B3B5B7BABCBEC0C2C4C6C9CBCDCFD1EC
:10040000D4D6D8DBDDDFE2E4E7E9EBEEF0F3F5F894
:10041000FAFDFFFFAA7F55402223252628292A2CF2
:100420002D2F3032333536383A3B3D3E404243453E
:1004300047494A4C4E5051535557595A5C5E606279
:10044000646668696B6D6F71737577797B7D7F8189
:10045000838587898A8C8E90929496989A9C9E9F89
:10046000A1A3A5A7A8AAACAEAFB1B3B4B6B8B9BBA7
:10047000BCBEBFC1C2C3C5C6C7C9CACBCCCDCED016
:10048000D1D2D2D3D4D5D6D7D7D8D9D9DADADBDB03
:10049000DBDCDCDCDCDCDDDDDDDDDCDCDCDCDCDB9A
:1004A000DBDBDADAD9D9D8D7D7D6D5D4D3D2D2D1E3
:1004B000D0CECDCCCBCAC9C7C6C5C3C2C1BFBEBCD6
:1004C000BBB9B8B6B4B3B1AFAEACAAA8A7A5A3A147
:1004D0009F9E9C9A98969492908E8C8A8987858309
:1004E000817F7D7B79777573716F6D6B69686664E9
:1004F00062605E5C5A5957555351504E4C4A4947B9
:10050000454342403E3D3B3A3836353332302F2D5D
:100510002C2A29282625232200AF00AE2B00140008
:100520001A00080015001700E0000400160007007C
:1005300009000A00E1001D001B000600190005006B
:10054000000000000000E300777C2C002A0013006C
:1005500012000C0018001C00340033000F000E00C5
:100560000D000B0029003800370036001000110084
:10057000000000000000E600787C28002B001E0030
:100580001F00200021002200E00000000000000009
:1005900000000000E100000000000000000000007A
:1005A000000000000000E30001002C002A002700EA
:1005B0002600250024002300000000004F00520008
:1005C000510050000000000000000000000000008A
:1005D000000000000000E600010028002B001E02C1
:1005E0001F02200221022202E000000000000000A1
:1005F00000000000E100000000000000000000001A
:10060000000000000000E30001002C002A00270287
:1006100026022502240223023500310030002F007B
:100620002E002D003502310230022F022E022D0243
:10063000000000000000E60001002800007C00002F
:10064000000000000000000020782378257827783B
:100650000000000021782478267828780000000027
:10066000000000000000E30001002C00000000007A
:10067000000000000000000000000000000000007A
:10068000000000000000000000000000000000006A
:10069000000000000000E6000100280009025B00E5
:1006A000030100A0FA09040000010301010009216F
:1006B000110100012244000705810308000109041B
:1006C00001000203000000092111010001222200A3
:1006D0000705820320000107050303200001090428
:1006E00002000103000000092111010001226D0038
:1006F00007058403200001120100020000000853D6
:100700004601000100010200010C0343006F00726A
:10071000006E0065000000100366006F006F00733C
:1007200000740061006E0000000403090400000072
:100730000000003E5B4F5B3E003E6B4F6B3E001C7B
:100740003E7C3E1C00183C7E3C18001C577D571C0C
:10075000001C5E7F5E1C0000183C180000FFE7C311
:10076000E7FF00001824180000FFE7DBE7FF003078
:10077000483A060E00262979292600407F050507FC
:1007800000407F05253F005A3CE73C5A007F3E1C55
:100790001C0800081C1C3E7F0014227F2214005FEE
:1007A0005F005F5F0006097F017F00006689956A30
:1007B0000060606060600094A2FFA2940008047E64
:1007C00004080010207E20100008082A1C080008D9
:1007D0001C2A0808001E10101010000C1E0C1E0C05
:1007E0000030383E383000060E3E0E060000000095
:1007F00000000000005F0000000007000700001478
:100800007F147F1400242A7F2A12002313086462B5
:1008100000364956205000000807030000001C2243
:100820004100000041221C00002A1C7F1C2A0008F5
:10083000083E08080000807030000008080808081A
:10084000000000606000002010080402003E5149D2
:10085000453E0000427F4000007249494946002160
:1008600041494D33001814127F1000274545453982
:10087000003C4A49493100412111090700364949E4
:10088000493600464949291E0000001400000000B6
:100890004034000000000814224100141414141401
:1008A000000041221408000201590906003E415D82
:1008B000594E007C1211127C007F49494936003E96
:1008C00041414122007F4141413E007F4949494128
:1008D000007F09090901003E41415173007F08086A
:1008E000087F0000417F4100002040413F01007F20
:1008F00008142241007F40404040007F021C027FDC
:10090000007F0408107F003E4141413E007F0909FD
:100910000906003E4151215E007F09192946002643
:10092000494949320003017F0103003F4040403FF5
:10093000001F2040201F003F4038403F0063140844
:100940001463000304780403006159494D43000017
:100950007F41414100020408102000004141417FD5
:100960000004020102040040404040400000030730
:100970000800002054547840007F28444438003850
:100980004444442800384444287F003854545418C0
:100990000000087E0902001824241C78007F080447
:1009A00004780000447D4000002040403D00007F6E
:1009B000102844000000417F4000007C0478047847
:1009C000007C08040478003844444438007C18242F
:1009D000241800182424187C007C0804040800480B
:1009E000545454240004043F4424003C4040207CE0
:1009F000001C2040201C003C4030403C004428109B
:100A00002844004C9090907C004464544C44000076
:100A10000836410000000077000000004136080061
:100A2000000201020402003C2623263C00000000D4
:100A300000000000000000000000000000C0E0F026
:100A4000F8F81800C0F0FCFEFFFFFFFFFFFFFF7E7D
:100A500000000000000000000080C0E0E0E0E0E0F6
:100A6000E0E0E0C0800000000080C0E0E0E0E0E006
:100A7000E0E0E0C080000000E0E0C0C0E0E0E0E0D6
:100A80000000E0E0C0C0E0E0E0E0E0C08000000086
:100A90000080C0E0E0E0E0E0E0E0E0C080000000D6
:100AA0000000000000000000000000E0F0F0F0E0B6
:100AB000ECEEF7F37020007C7C7C7E007E7E7E7FF7
:100AC0007F7F000080C0E07E5B4F5BFEC00000C007
:100AD00000DCD7DEDEDED7DC00C000000000000056
:100AE0000000000000000000000000000000000006
:100AF000000000000000F8FCFEFFE000FFFFFFFF29
:100B0000FFFF80FFFFFFFFFFFFFFFFFF1F07010049
:100B10000000000000000000FFFFFF810000000057
:100B2000000081C3C3C30000FFFFFF81000000007D
:100B3000000081FFFFFF0000FFFFFF010000000039
:100B40000000FFFFFF010000000001FFFFFF0000A9
:100B5000FFFFFF9D1C1C1C1C1C1C9DDFDFDF000019
:100B600000000000000000000000000F1F3F7F7F1A
:100B70007F7F7F3F1E0C001F1F1F3F003F3F3F7FB7
:100B80007F7F00307B7F7830202030787F3B0003F0
:100B9000000F7F0F0F0F7F0F000300000000000009
:100BA0000000000000000000000000000000000045
:100BB000000000000000030F1F3F3F3F3F1F1F3F8B
:100BC0003F7F7F7F3F3F1F3F7F7F7F7F7C787838ED
:100BD0001C0F0000000000000001030707070707C3
:100BE00007070703010000000001030707070707C5
:100BF00007070703010000000707070000000000C7
:100C000000000707070000000000000707070000BA
:100C10000001030707070707070707030100000094
:100C200000000000000000000000000000000000C4
:100C300000000000000000000000000000000000B4
:100C400000000000000000000000000000000000A4
:100C50000000000000000000000000000000000094
:100C6000000000000000000000000000000011244F
:100C70001FBECFEFDAE0DEBFCDBF27E0A2EEB1E0CE
:100C800001C01D92A631B207E1F711E0A0E0B1E08A
:100C9000E2EFF5E602C005900D92A23EB107D9F74A
:100CA0000E949C260C949A32ABC9482F2091FF04D5
:100CB0009091C60457E0291302C080E0089530E007
:100CC000529FF001539FF00D1124E953FB4F818196
:100CD000681306C08081481303C085818111EECF5F
:100CE0002F5F3F4F2770E7CFFC01AC014C5F5F4F98
:100CF0008FEF91E32191822728E030E087FF09C040
:100D0000880F892721503109C9F7E417F50791F7B2
:100D10000895880FF7CFE8EDF0E080818E7F808323
:100D20001092E2001092DA001092E100A0EEB0E022
:100D30008C9181608C9380818F77808319BCA7ED23
:100D4000B0E08C918E7F8C9380818F7E8083109217
:100D5000B10408952091E4003091E50095E6A901E1
:100D60002091EC00822F817020FF06C08091E80066
:100D700080FF06C080E008952091E80022FD1AC09F
:100D80008091BC04882389F0853089F08091EB0044
:100D900085FD0FC02091E4003091E5004217530714
:100DA000F9F29150E1F684E0089582E0089583E03D
:100DB000089581E008958091BE0487FF13C080915B
:100DC000E80082FF06C08091E8008B778093E800FE
:100DD00004C08091BC048111F2CF08958091BC04BD
:100DE0008823D9F38091E80080FFF8CF8091E80054
:100DF0008E77ECCF982F9093E900242F762F50E038
:100E0000891731F07091EC002091ED005091F000C5
:100E100021FD07C09F5F973071F78093E90081E063
:100E200008953091EB003E7F3093EB003091ED0060
:100E30003D7F3093ED003091EB0031603093EB005B
:100E40007093EC002093ED005093F0002091EE00A1
:100E500027FDE0CF80E00895B0E0A0E0E2E3F7E016
:100E60000C94C530C8EDD0E088818F7E8883E7ED93
:100E7000F0E080818160808384E082BF81E08093A4
:100E8000B10488818E7F888302EE10E0F801108221
:100E90001092DA0081EEC82ED12CF60110828881E2
:100EA0008F77888388818068888388818F7D888315
:100EB00019BC1092BC041092BD041092BB04109295
:100EC000BA0490EEE92EF12CF70180818B7F8083AC
:100ED00088818160888342E060E080E08BDFF601FA
:100EE00080818E7F8083F801808181608083808112
:100EF00088608083F70180818E7F80838881806114
:100F00008883CDB7DEB7E8E00C94E130FC01809136
:100F1000C4049091C50486179707A0F06115710568
:100F200029F49091E8009E779093E80090E0611595
:100F3000710551F4911108C08091E80082FF34C01E
:100F400080E00895BC01F2CF8091BC048823C1F1F8
:100F50008530C1F18091E80083FD30C08091E800C8
:100F600082FDEACF8091E80080FFE1CF8091F3001D
:100F70002091F200382F6115710519F028303105E4
:100F800058F091E02830310509F090E02091E80018
:100F90002E772093E800CBCF81918093F1006150B0
:100FA00071092F5F3F4FE7CF8091BC04882341F048
:100FB000853041F08091E80083FFBECF81E0089545
:100FC00082E0089583E008950895089587E797E7FC
:100FD000909301088093000888E19AE00FB6F89496
:100FE000A895809360000FBE90936000FFCF2FB74D
:100FF000F8946091AD047091AE048091AF0490912B
:10100000B0042FBF08958091570108959091580121
:101010009130D1F49091AA0497FF16C0E82FE6957D
:10102000E695E695EE31E0F4F0E0E451FE4F282F2E
:10103000277081E090E001C0880F2A95EAF780953B
:101040009281892382830895E6EEF1E091918913DC
:1010500003C0DF0111971C9291E0EC3EF907B1F754
:101060000895909158019130C1F49091AA0497FF8E
:1010700014C0E82FE695E695E695EE31F8F4F0E039
:10108000E451FE4F877021E030E001C0220F8A95C5
:10109000EAF78281822B82830895A6EEB1E0EFEF1A
:1010A00090E02D91821751F0EF3F19F4211101C00A
:1010B000E92F9F5F9630A9F7EF3F09F408950E2EB0
:1010C000000CFF0BEC51FE4FE6CFA3E0B0E0EBE6E7
:1010D000F8E00C94CB302091A8043091A904281793
:1010E0003907B1F09093A9048093A804E091A60475
:1010F000F091A704309761F00084F185E02D3097DE
:1011000039F024E029839B838A83CE0101960995D7
:101110002396E2E00C94E730A3E0B0E0E2E9F8E0E7
:101120000C94CB302091A4043091A50428173907E2
:10113000B1F09093A5048093A404E091A604F091EB
:10114000A704309761F00084F185E02D309739F0E5
:1011500023E029839B838A83CE01019609952396F8
:10116000E2E00C94E7308091A204882369F0E091DA
:10117000A604F091A704309739F00190F081E02D9A
:10118000309711F00995089580E00895FC01EE0F65
:10119000FF1FE80FF91FE050FC4F6183408322835B
:1011A0000895539A0895E7EEF2E0118282818460F7
:1011B00082830895CF938091030580FF04C00E942D
:1011C000ED16CF910895C091530180915401C81735
:1011D000B0F7809151019C2F981B892F20E040E0AF
:1011E00060E090E0D3DFCF5FF0CF0F931F93CF93FA
:1011F000DF93D82F162F042F80910305C091530140
:1012000080FD10C0DF91CF911F910F9108958091C3
:1012100051019C2F981B892F202F412F6D2F90E07B
:10122000B5DFCF5F80915401C81788F3C3DFEACFE1
:10123000CF93DF93EC01409106059C81892F81704B
:1012400090FD842F692F627091FD642F92FF40E022
:10125000CCDF8C8190E00196877099278C83DF9199
:10126000CF910895E3E0F5E080818E7F80839BDF5E
:10127000E7EEF2E08281816082839CCF809103055A
:10128000982F9C7F61F48370846080930305809124
:101290000605833318F082E38093060508958C3A9F
:1012A000B0F38370886AF1CFB0E0A0E0EAE5F9E03E
:1012B0000C94C5309B01E82FF0E0ED5EFC4F31113E
:1012C00009C0E4918E2F7E2F6E2FCDB7DEB7E8E0F8
:1012D0000C94E130E32EF12CE491FE2F0E2F10E060
:1012E00046E0649FC0011124CFEFD0E0BE010E9410
:1012F000A730AB01822F90E0880F991F25E5249F2E
:10130000B001259F700D1124861B970B982F990F04
:10131000980FBE016E197F09609FD001619FB00DCB
:10132000709FB00D11248B2F399F90011124232F12
:101330003327BE01621B730B609F9001619F300DCC
:10134000709F300D11246E01C91AD108CE9CB001D6
:10135000CF9C700DDE9C700D1124672F7727C61B64
:10136000D70BC09F7001C19FF00CD09FF00C1124CF
:101370007F2D42305105A1F050F44115510509F47B
:10138000A3CF4130510581F07B2F832F9DCF443077
:10139000510569F080F04630510509F495CFF4CF3E
:1013A000EB2F8F2D7F2F90CF7E2FE32F8DCFEF2D23
:1013B0007B2F8F2F89CF732FEB2FFBCFCF93762FE0
:1013C000C22F682F842F70DF472F90915101C91BC6
:1013D000282F8C2F90E0DADECF9108950F931F9382
:1013E000CF93DF938C01D0E0C0E0909155019C1722
:1013F0001D0609F06CF4DEDEF801848190E00196B0
:10140000817099278483DF91CF911F910F91089567
:10141000F8014481209153012C0F3D2F311D609123
:1014200005058091040596959C171D0659F054F00A
:10143000442351F040910605433308F042E3BEDFF8
:101440002196D3CF4423B1F340E0F9CFB0E0A0E040
:10145000ECE2FAE00C94C130EC014C81042F10E076
:101460009801D8010E948B329B01AC010E94593235
:101470004B015C01E0E2F0E0E01BF10BA5E5B0E020
:10148000AC019B010E9459326B017C019F01DF017D
:101490000E942B319B01AC010E9463329B01AC0185
:1014A000280D391D4A1D5B1DC701B6010E94693216
:1014B000F22E822F90E039E23F1518F143E0249F8D
:1014C0009001112435952795122F109500E085E5A0
:1014D000E82EEF1880915501081718F16BDE9C81FA
:1014E00081E0992319F0903219F48FEF8093500125
:1014F00080915001890F8C83CDB7DEB7ECE00C945E
:10150000DD3025E530E0A901481B590BCA019A01DD
:10151000220F331F280F391F37FFD4CF2F5F3F4FC4
:10152000D1CF8E2D01FD8F2D20915301200F332718
:10153000331F412F133308F042E3609105053EDF6E
:101540000F5FC8CF1F93CF93DF93EC018C81811184
:1015500009C081E08C831092EB0292E090934F01DE
:1015600080934E011091530180915401181740F15E
:1015700010E060915501161778F11CDE80914E0144
:101580002091EB02280F2093EB0290914F01980FCE
:1015900090934F01191654F4022E000C330B409116
:1015A00055014150550B2417350734F08195809330
:1015B0004E01813009F41C82DF91CF911F91089573
:1015C00080915101912F981B892F20E040E060E02D
:1015D00090E0DCDD1F5FC8CFE12FF0E070E0CF01CD
:1015E0000E940B3120915301820F2091EB02022EB9
:1015F000000C330BE217F307B4F020914F01022ED9
:10160000000C330B2E173F0774F0282F30E0409169
:101610000605433308F042E3609105058091040517
:10162000CDDE1F5FA6CF90915101891B20E040E0E5
:1016300060E090E0ABDDF5CFB0E0A0E0E2E2FBE0FF
:101640000C94C330EC018A81DD24DA9480FD02C061
:10165000DD24D3948C8181110AC081E0D81221C08D
:101660008091550181508093EA0281E08C83C12CE6
:1016700096E3A92E80915501C816B0F09BDD8091AC
:10168000EA0291E0D91258C0811151C080915501F0
:1016900081508093EA021C82CDB7DEB7EAE00C9459
:1016A000DF301092EA02E1CF809153019091510115
:1016B000891B8C0D20E040E060E090E067DD04E0F5
:1016C00010E0B12CEC2CF12C8091EA028B0D8733C9
:1016D00044F16A2D0E94FE30892F082E000C990BD0
:1016E000E816F906C1F4209153012E0D3F2D311D4E
:1016F00080910605809FA001819F500D1124559572
:10170000479555954795433308F042E360910505A9
:101710008091040553DEBD0C01501109A9F6C39454
:10172000A9CF87FFDACF90915501890FD6CF81508D
:101730008093EA02DC82B0CF90E00196609155017F
:1017400070E00E940B318093EA028C83A5CFEF9268
:10175000FF921F93CF93DF93EC0110E0EE24EA9405
:10176000F12C60915501161768F024DD9A818C8167
:1017700090FF20C08F5F8C83DF91CF911F91FF90EE
:10178000EF90089520915301210F3327331F40918B
:101790000605433308F042E370E0C7010E940B31B5
:1017A000962F8C8160910505199F800D112406DE0E
:1017B0001F5FD7CF8150DFCF762F9091030590FF29
:1017C0000BC0433308F042E3682F842F6DDD962F62
:1017D000672F482F892F09CD0895CF93DF93EC0110
:1017E000E3E0F5E0438162818C81E6DF8C818F5FED
:1017F0008C83DF91CF910895CF93DF93EC01EC813F
:10180000F0E0E85EFB4F4491E3E0F5E06281818126
:10181000D3DF8C818F5F8C83DF91CF91089580E03F
:101820000895F894E82FE295EF70F0E031A1282FA9
:101830002F7081E090E001C0880F2A95EAF7982F79
:101840009095932391A392A1892B82A378940895D4
:101850000F931F938091A204882321F0C8DB1F916E
:101860000F910895C4DB00918C0210918D0220919C
:101870008E0230918F02600F711F821F931FEFCF76
:101880009091AA0492FF10C041E0282F24712430C7
:1018900009F040E031E0282F2871283009F030E0CD
:1018A000431711F02CE0822793FF10C041E0282F4E
:1018B0002471243109F040E031E0282F28712831CB
:1018C00009F030E0431711F02CE082273091AB048F
:1018D00030FF10C051E0282F2171213009F050E075
:1018E00041E0282F2871283009F040E0541711F00A
:1018F00029E0822731FF10C041E0282F21712131DA
:1019000009F040E031E0282F2871283109F030E05B
:10191000431711F029E0822794FD877E08958238CD
:101920009105B9F1B0F48133910509F47DC048F413
:101930008932910509F46DC08A32910509F47BC0A2
:1019400008958533910509F45FC08933910509F144
:101950000895833E9105D9F138F4803E910529F12F
:10196000823E910579F10895863E9105D9F1873E31
:10197000910509F43EC0843E910541F52091AB04E8
:1019800021FF24C08091AA0484FD19C087EE90E055
:1019900008952091AA04237009F05AC02091AB0445
:1019A00023FF14C089E290E008952091AA0420FD4D
:1019B00038C03091AB0430FF09C024FF43C090E031
:1019C00080E008952091AA0422FDF7CF0895209188
:1019D000AA0422FD3AC03091AB0430FD39C024FF87
:1019E000F5CFEDCF2091AA0423FFF0CF24FDE7CF60
:1019F000CDCF2091AA0423FD2EC03091AB0431FF3E
:101A0000EECF84EE90E008952091AA0425FFDECF6A
:101A1000C9CF2091AA0425FD21C02091AB0423FF4A
:101A2000D5CF89E390E0D2CF2091AA0426FFCECF74
:101A30008AE290E008952091AA0426FFC7CF81E3AF
:101A400090E0089583EE90E0089582EE90E008958E
:101A500080EE90E0089586EE90E0089585E390E0B2
:101A600008951F93CF93DF935ADFEC01C11580E5F2
:101A7000D807F0F5C11580E4D80708F09AC0C03E39
:101A8000D10520F5CD3CD10508F082C0C83AD1057A
:101A900078F4C53AD10508F073C0C130D10519F109
:101AA000209709F1C430D105F0F4D0E0C0E01BC0AC
:101AB000C33CD105D0F7C85AD0E0CC0FDD1FC35AC4
:101AC000DE4F0990D881C02DD4640DC0C11580E2CD
:101AD000D80708F0CDC0C11581E0D80708F05AC07A
:101AE000C83ED10510F7CE01DF91CF911F91089527
:101AF000C03682E5D80718F5C03482E5D80708F06B
:101B000068C0C03282E5D80708F05CC0C11582E524
:101B1000D80708F493C02C2F2695269580E2289F9D
:101B2000900111248C2F8370C1E0D0E002C0CC0F53
:101B3000DD1F8A95E2F7C22BD32BDD68D4CFC03AE4
:101B400082E5D80760F4C03882E5D80708F456C0AB
:101B5000CF71D0E0DC2FCC27C46FD06AC4CFC03C9B
:101B600082E5D80708F45FC0C03E82E5D80708F0D8
:101B70009CCFDC2FCC27CC27DF71C06FD06AB3CFCE
:101B8000C55AD0E0C65ADE4FC881D0E0D064ABCF92
:101B9000D065A9CF8D2F74DE182FCE019927BFDE17
:101BA000C12FD0E0DC2FCC27CC27DF71C82BD92B5D
:101BB0009ACFCE019927B3DECC27DF70C82BD92B63
:101BC000D06A91CFCF71D0E0DC2FCC27C16FD06A23
:101BD0008ACF2C2F26952695277080E2289F90018A
:101BE00011248C2F8370C1E0D0E002C0CC0FDD1F28
:101BF0008A95E2F7C22BD32BDC6875CF2C2F269564
:101C00002695277080E2289F900111248C2F8370E5
:101C1000C1E0D0E002C0CC0FDD1F8A95E2F7C22BF5
:101C2000D32BDA6860CF8C2F8F712ADEC82FD0E0DB
:101C3000DC2FCC27CC27DF71D06255CF8C2F8F7152
:101C40001FDE55E0D695C7955A95E1F7CF70D0E0E5
:101C5000DC2FCC27282F30E084FF06C044E0220F81
:101C6000331F4A95E1F73327C22BD32BD0693BCFE3
:101C70008D2F8F7105DE182FCE01992750DEC12FD1
:101C8000D0E0DC2FCC27CC27DF71C82BD92BD4CFC9
:101C900080959091520298239093520208958091DA
:101CA000520290912902892B90912802992391F058
:101CB000892B90915801913071F49091AA0497FF6B
:101CC0000AC09EE12EEE31E040E0915040F4411117
:101CD00010922802089596E026EE31E0F5CFF90142
:101CE00051919F01552389F34F5FEFCF8091FF04FE
:101CF0009091C604981301C008958F5F8770FACF42
:101D0000292F983078F5863068F590E036E0239FEB
:101D1000800D911D1124682F677023E0969587959B
:101D20002A95E1F7FC01EE0FFF1FE80FF91FE25FB4
:101D3000FD4F50E040E080E0219130E0062E02C0EF
:101D4000369527950A94E2F721703327042E01C0B7
:101D5000220F0A94EAF7822B4F5F5F4F4330510501
:101D600059F7089580E00895292F983098F5863026
:101D700088F590E036E0239F800D911D1124282FD7
:101D8000277041E001C0440F2A95EAF723E09695B9
:101D900087952A95E1F7FC01EE0FFF1FE80FF91F69
:101DA000E25FFD4F30E020E070E05191DF011197DC
:101DB000CB01022E02C0969587950A94E2F78170B6
:101DC00081958527842385278C932F5F3F4F233070
:101DD000310559F708958093A80208959091A802BB
:101DE00021E030E0F90101C0EE0F8A95EAF7D90150
:101DF00002C0AA0FBB1F6A95E2F7EA2B01C0220FAF
:101E00004A95EAF7892F8E23E81303C0292B822FE6
:101E1000E2CF20952923FBCF21E030E001C0220F43
:101E20008A95EAF720958091A8028223D4CF9091D9
:101E300027028095892380932702282F277061F439
:101E4000891751F09091AB0492FF06C08695869554
:101E50008695E2DF10922702089521E030E001C06C
:101E6000220F8A95EAF78091A802822BB4CF809343
:101E70009A020895982F92959F7011F0892F94E0FF
:101E8000282F2695269511F09E5F822F869509F0C2
:101E90009F5F892F0895CF93DF93682F81E06A3089
:101EA00019F06D3029F480E082D0DF91CF91089550
:101EB000809114079091150726E0FC01AEE0B7E091
:101EC00001900D922A95E1F7603E08F458C026E093
:101ED000FC0111922A95E9F7C0911407D0911507DA
:101EE00046E050E0BE018EE097E00E94D8319E01AE
:101EF0002E503540892B41F1C90145E096958795D3
:101F00004A95E1F741E050E0BA0102C0660F771F41
:101F10008A95E2F7CB0160910C0570910D05862B37
:101F2000972BB9016B5F7F4FE5E076956795EA9552
:101F3000E1F702C0440F551F6A95E2F7842B952BF9
:101F400090930D0580930C052A5F3F4F40910B0540
:101F5000642F70E0C9010E94A730481B463010F47E
:101F6000240F311D211572E0370710F030E020E01A
:101F7000225F3A4F309315072093140796CFF6E06F
:101F80006F9FB0011124635D784F46E050E00E94DE
:101F9000C231A2CFCF93DF93EC01FE018491811176
:101FA00003C0DF91CF91089576DF2196F6CFCF93CE
:101FB000382FE0911407F0911507EE50F54020916D
:101FC0000B05622F70E0CF010E94A730281B822FE3
:101FD000332359F066E00E94F230C82FC15010F44C
:101FE000CF91089580E257DFF9CF9F01280F311D6F
:101FF0002115324018F080E0F0E0E0E08E0F9F2FD6
:10200000911D825F9A4F9093150780931407E8CF34
:10201000C1DF81E0CCCF80915801813061F58091A2
:10202000AA0487FF28C03BDE8093ED0140E250E028
:102030006AE272E08CEE91E00E94D831892BD1F0F7
:1020400080E2ECEEF1E0AAE2B2E001900D928A9516
:10205000E1F7E091A604F091A704309759F00480CD
:10206000F581E02D309731F086E08093EC018CEE25
:1020700091E00995089513DE8093E40148E050E073
:102080006AE472E084EE91E00E94D831892B91F3EA
:1020900088E0E4EEF1E0AAE4B2E001900D928A95C6
:1020A000E1F7E091A604F091A704309719F30280BC
:1020B000F381E02D3097F1F284EE91E0DACF1092C7
:1020C0005202809158018130A9F48091AA0487FFBF
:1020D00011C0EEEEF1E08EE1DF011D928A95E9F785
:1020E00090E080E019D890E080E00E9465081092AE
:1020F000290291CFE6EEF1E086E0EECFAAE2B0E071
:10210000E4E8F0E10C94CA308EEB94E02091F10009
:10211000DC012D93CD01B4E0863C9B07B9F780919B
:10212000BF04833009F472C0B8F4813009F449C0A7
:10213000823009F4B6C08091E80083FF3EC18091EF
:10214000BE049091BF049A3008F037C1E92FF0E047
:10215000E456FD4C0C941E318A3009F491C08B304A
:1021600009F471C0893039F78091BE04813219F7C2
:102170008091C2049091C304009711F00297D9F6A0
:102180008091E800877F8093E8008091E80082FFDB
:1021900038C09091F3008091F200029731F4809161
:1021A000F100813011F0863021F48091F1008093AC
:1021B00057018091E8008B778093E8000E94DB064E
:1021C000BACF8091BE04813A09F0B5CF8091E80082
:1021D000877F8093E8008091C2049091C304892B8B
:1021E00061F468E082EB94E070E00E9486078091E1
:1021F000E8008B778093E8009ECF60E090E080E07D
:10220000F3CF8091BC048111C0CF95CF8091BE04E3
:10221000813A09F090CF8091C2049091C304892B38
:1022200009F089CF8091E800877F8093E800809152
:10223000E80080FFFCCF809158018093F1008091ED
:10224000E8008E77B9CF8091BE04813209F073CF58
:102250008091C2049091C304892B09F06CCF8091C6
:10226000E800877F8093E8000E94DB0681E0909180
:10227000C004911101C080E08093580120DF5BCF42
:102280008091BE04813209F056CF8091E800877FAB
:102290008093E8000E94DB068091C1048093560180
:1022A0004ACF8091BE04813A09F045CF8091E80081
:1022B000877F8093E8008091E80080FFFCCF8091C9
:1022C0005601BBCF803899F0823809F076C08091F2
:1022D000C2048F70873008F070C08093E90080914D
:1022E000EB0085FB882780F91092E90006C08091F9
:1022F000BA049091BB04911182609091E800977F9D
:102300009093E8008093F1001092F1008091E80032
:102310008E77B8C1882309F4A5C1823009F04DC079
:102320008091C0048111A9C18091C2048F702FEFE8
:10233000280F263008F041C08093E9002091EB007F
:1023400020FF9BC1933031F48091EB008062809339
:10235000EB0093C19091EB0090619093EB0021E032
:1023600030E001C0220F8A95EAF72093EA0010922C
:10237000EA008091EB008860EACF81111EC01091C5
:10238000C0041F778091E3008078812B8093E30065
:102390008091E800877F8093E8000E94DB068091AF
:1023A000E80080FFFCCF8091E30080688093E30029
:1023B00082E0111183E08093BC048091E80083FFE8
:1023C0000AC08091E800877F8093E8008091EB004D
:1023D00080628093EB00AA96E3E00C94E63080588C
:1023E000823058F72091C0043091C1042C3DE3E0C5
:1023F0003E07A1F583E08A838AE289834FB7F89488
:10240000DE01139620E03EE051E2E32FF0E050932E
:102410005700E49120FF03C0E295EF703F5FEF703B
:102420008E2F90E0EA30C0F0C7968D939D932F5F7A
:10243000243159F74FBF8091E800877F8093E800EF
:102440006AE270E0CE0101960E9486078091E80062
:102450008B778093E800B1CFC096E7CF8091C2041C
:102460009091C304432F55274330510509F44AC0C6
:1024700078F54130510509F47AC08BE590E0ECE93C
:10248000F6E04230510509F098CF2091E800277F0F
:102490002093E8002091C4043091C504821793076B
:1024A00008F49C0140E02115310509F065C0411197
:1024B00063C08091E80082FDC9CF8091BC0488236D
:1024C00029F2853019F28091E80083FFF2CFBECF68
:1024D0004132510509F43CC04232510509F06DCF3B
:1024E0008330910508F069CFFC01EE0FFF1FEB521E
:1024F000FE4F0190F081E02D8E529E4FDC018C91B9
:1025000090E01AC0332721303105D1F02115310573
:1025100061F02230310509F050CFE9E0F7E0E491B5
:102520008E2F90E0E9E0F7E007C0E9E2F7E0E49100
:102530008E2F90E0E9E2F7E0009709F43ECFA5CFB7
:10254000E7E1F7E0E4918E2F90E0E7E1F7E0F4CFE8
:102550008330910508F031CF880F991FFC01E552B7
:10256000FE4F0190F081E02D89E090E08ECF82E176
:1025700090E0E7EFF6E089CF8091BC04882309F46E
:1025800065CF853009F462CF8091E80083FD5ECF8E
:102590008091E80082FD8DCF8091E80080FF83CF9D
:1025A0009091F3008091F2002115310519F08830E7
:1025B000910550F041E0089709F040E08091E80073
:1025C0008E778093E8006FCF44914093F10031966D
:1025D000215031090196E8CF803809F0EECE809184
:1025E000E800877F8093E8008091BD048093F1002C
:1025F0008DCE8111E2CE1091C004123008F0DDCEF4
:102600008091E800877F8093E8001093BD040E94CA
:10261000DB06112311F084E005C08091E30087FD03
:10262000FACF81E08093BC0442E061EC81E00E943B
:10263000FA0642E261EC84E00E94FA0642E261ECB2
:1026400082E00E94FA0642E260EC83E00E94FA0611
:102650008091BC04843021F081E080935901ADCE9B
:1026600082E0FBCF8091C004813009F0A6CE81E0EA
:10267000933009F080E08093BB041092E9008091D0
:10268000E800877F8093E8000E94DB0696CE8823CF
:1026900011F0FEDAC0CC0895882331F090915202F7
:1026A000982B90935202B7CC0895882319F19CEF90
:1026B000980F913A18F40E940608ADCC90E2980F5A
:1026C000983048F4877091E001C0990F8A95EAF735
:1026D000892FDEDAF2CF9BE5980F933020F490E05B
:1026E00080E00C948C08885A8B3120F490E080E0D4
:1026F0000C9465080895CF93C82F8823A9F18CEF17
:102700008C0F813A98F5809158018130F9F48091CD
:10271000AA0487FF1BC0EC2FE695E695E695F0E04E
:10272000E451FE4F828190E04C2F477021E030E071
:1027300002C0220F331F4A95E2F782239323892B8D
:1027400079F08C2F0E94060866DC0AC0E6EEF1E004
:102750008CEE91E02191C217A1F38E179F07D1F75C
:102760008C2F0E94310857DCCF91089580E28C0FA6
:10277000883068F4C77021E030E001C0220FCA95AC
:10278000EAF780915202822B80935202ECCFEBE564
:10279000EC0FE33040F4F0E0E65AFE4F808190E029
:1027A0000E948C08E1CFC85ACB31F0F6EC2FF0E054
:1027B000EE0FFF1FE35AFE4F808191810E94650852
:1027C000D3CF0F93CF93DF93C3E0D5E048815981F6
:1027D0006A817B8188E090E00E94213228813981E2
:1027E0004A815B816C817D818E819F8100E20E94A4
:1027F0005231622F83E290E00E940F32DF91CF913D
:102800000F910895B0E0A0E0E8E0F4E10C94C63048
:10281000182FF62ED42FE22E9091030590FF37C08B
:1028200020910405281308C080910505861304C073
:1028300080910605841729F08091E90282608093D7
:10284000E902E92FE695E695AE2FB0E0A955BE4F17
:102850008C918093E7029C7F9430F1F48D2FD333D9
:1028600008F082E3612F7F2D0E945409962F672F75
:10287000482F892F0E94F50810930405F092050552
:10288000D0930605EE2019F083E095E09ADFCDB7EE
:10289000DEB7E7E00C94E230823019F4D0910605FF
:1028A000EBCF863079F1893069F1893129F7E95127
:1028B0008E2F8170D82EE695F0E0ED5EFB4FC4912F
:1028C00000E060915501061718F00E94DA08D4CF95
:1028D0000C9FC001112470E00E94A730812FD110FD
:1028E0000FC0860F20915301200F3327331F4D2F28
:1028F000D33308F042E36F2D0E94DE090F5FE1CF72
:10290000861BF0CF122FB8CFE3E0F5E0438121E141
:10291000421B08F440E021E06281818173CFE3E053
:10292000F5E0438121E1420F08F44FEF21E062819D
:10293000818168CFE3E0F5E0628121E1621B08F468
:1029400060E021E0438181815DCFE3E0F5E06281D9
:1029500021E1620F08F46FEF21E04381818152CFC2
:10296000E3E0F5E0818121E04381628188504ACF34
:10297000E3E0F5E0818121E043816281885F42CF1D
:1029800080910705882319F081508093070583E023
:1029900095E017CF80910705833018F48F5F8093FF
:1029A000070583E095E00DCFE3E0F5E085E0808367
:1029B00011828FEF828382E383831482E7EEF2E059
:1029C00082818360828383E095E0FBCE1F93CF9367
:1029D000DF93122F8430E0F46830D0F44630C0F436
:1029E000C42FD0E0CC0FDD1F9CE0699FC00DD11D2E
:1029F000112490E6899FC00DD11D1124632FCE01B3
:102A000089960E940F32612FCE018A960E940F3262
:102A1000DF91CF911F910895AF92BF92CF92DF9235
:102A2000EF92FF921F93CF93DF938CE1C82E85E046
:102A3000D82ED0E07601C0E013C0F5012591349185
:102A4000412F6C2F8D2FC2DF82E0A80EB11C1F5FBB
:102A5000163099F78CE0E80EF11CCF5FC83019F002
:102A6000570110E0EACFDF5F80E6C80ED11CD430FA
:102A700009F7DF91CF911F91FF90EF90DF90CF90FA
:102A8000BF90AF9008954F925F926F927F928F9216
:102A90009F92AF92BF920F93CF93DF9388E090E025
:102AA0000E94F6312B013C01C3E0D5E068835982D6
:102AB0008A837B821C821D821E821F8283E290E0B9
:102AC0000E94EE31282F30E040E050E060E070E0FE
:102AD00080E090E000E20E94373124293529462920
:102AE0005729288339834A835B836C837D838E8354
:102AF0009F83DF91CF910F91BF90AF909F908F9068
:102B00007F906F905F904F900895CF93DF9385E211
:102B100090E00E94EE31D82F86E290E00E94EE31E4
:102B2000C82F87E290E00E94EE31D53259F4C630CA
:102B300049F491E0883009F090E0892F8170DF91AD
:102B4000CF91089580E0FACF9B0127553E4F67351E
:102B500072408105910518F4C9010C94EE3180E0B2
:102B60000895CF92DF92EF92FF92CF93DF93EC0123
:102B7000C880D980EA80FB80C701B601E5DF9FEFFE
:102B8000C91AD90AE90AF90AC882D982EA82FB82FB
:102B9000DF91CF91FF90EF90DF90CF9008950F934A
:102BA0001F93CF93DF93843030F5683020F54630A3
:102BB00010F5C42FD0E0CC0FDD1F2CE0629FC00DBC
:102BC000D11D112430E6839FC00DD11D1124CE01EB
:102BD00089960E94EE31082F10E0102F0027CE01B9
:102BE0008A960E94EE319801282BC901DF91CF917E
:102BF0001F910F91089590E080E0F8CF462F783034
:102C000030F4663020F4843010F4672FC8CF90E0A1
:102C100080E00895CF92DF92FF920F931F93CF939E
:102C2000DF936C010091A80280919A02082BC3E007
:102C3000D0E010E0FC2EC8010C2E02C095958795BF
:102C40000A94E2F780FD0CC02197A0F7F12C8F2D9C
:102C5000DF91CF911F910F91FF90DF90CF9008955A
:102C6000B6018C2FCBDF0E94310D019769F3EFCFB6
:102C7000CF93DF93EC01CEDFBE01C0DF0E94310DA8
:102C8000DF91CF910895FC0124812223B9F0808146
:102C90009181EEDF92959F70963091F058F4925F9B
:102CA0009F70923058F4803F19F030F4883E30F431
:102CB00081E008959A5FF4CF843FD1F380E00895D6
:102CC000883EB0F3813FD1F7F3CFA6E0B0E0EBE66A
:102CD000F6E10C94CA3026E0FC01DE011196019069
:102CE0000D922A95E1F7FC01258189819A812223A1
:102CF00081F0662371F08EDF182F682F89819A8109
:102D000033D869817A81812F79DF2696E3E00C94AC
:102D1000E6300E94800E182FF4CF0F931F93CF93AD
:102D2000DF938B01EA019091BC04943061F58093AC
:102D3000E9008FEF9091E800815095FD06C095ED78
:102D40009A95F1F700008111F5CF8091E80085FF99
:102D50001AC00E94AA06811111C08091E80085FD69
:102D600006C08091E8008E778093E800F2CFF801EA
:102D700081918F018093F100219779F78091E8008C
:102D80008E778093E800DF91CF911F910F91089586
:102D900043E050E0BC0184E0C0CF40E250E0BC0121
:102DA00084E0BBCFCF93DF93EC0148E050E0BC015F
:102DB00081E0B3DF88E0FE01A2EBB4E001900D9268
:102DC0008A95E1F7DF91CF910895603229F440E2CE
:102DD00050E0BC0182E0A1CF08953BB1377F2BB119
:102DE00028604FB7F89480E094E0FC015191CF0146
:102DF00068E02BB9000000C057FF3BB9550F000039
:102E000000C000C000C03BB900C06A9591F7F4E073
:102E1000823A9F0751F74FBF8FE594E00197F1F792
:102E200000C000000895B0E0A0E0E9E1F7E10C94F3
:102E3000C3307C015B016A0180918B0201E010E0EC
:102E40008A3010F40AE010E0C1E0D0E0B501C7011B
:102E5000F6010995811104C021960C171D072CF469
:102E6000CDB7DEB7EAE00C94DF30CC9F9001CD9F68
:102E7000300D300D112490E080E045E34A95F1F7E4
:102E80000000019682179307C1F7E0CF18D92FEF02
:102E900084E39CE0215080409040E1F700C00000B6
:102EA00088E19AE00FB6F894A895809360000FBE71
:102EB00090936000FFCFA0E1B0E0E1E6F7E10C9471
:102EC000BD30CE0101965C0180E1F50111928A9539
:102ED000E9F706E210E099EA892E9924939427E510
:102EE000422E22E0522E612C712C6201F1E14F162C
:102EF0005104610471042CF080E1C82ED12CE12C26
:102F0000F12CA601B401C5010E9400328C0C9D1C5D
:102F10000D2C000CEE08FF084C185D086E087F08A9
:102F20000150110911F76096E0E10C94D9306FEF70
:102F300085E290E00E940F326FEF86E290E00E94FF
:102F40000F326FEF87E290E00E940F3260E088E27C
:102F500090E00E940F3260DDAEDF65E285E290E036
:102F60000E940F3266E086E290E00E940F3268E035
:102F700087E290E00C940F32AB0124E630E0BC0114
:102F800088E70E94792E21E0892B09F020E0822F2A
:102F900008958091FE039091FF03911103C091E089
:102FA00089270895882361F062E070E08AE195E066
:102FB000E3DF811103C08091FE0308951092FE03A8
:102FC0008091FE03ECCFCF93C091FE038091FF036D
:102FD0008823C9F00E94F707605A75418F4F9F4FB1
:102FE0006093FA037093FB038093FC039093FD03BB
:102FF000C11107C062E070E088E195E0BDDF81119A
:1030000005C0C091FE038C2FCF91089581E080937D
:10301000FE03F7CFB0E0A0E0E0E1F8E10C94BD30B2
:10302000FC016280448081E08483E8E1F4E07490F4
:10303000E7E9F4E0E491C0910605C695C158D0E0F7
:10304000CC0FDD1FED2EFF24812C25E0922EAA242B
:10305000AA94B12C55245A94E719CE2ED12C8091E4
:103060005501881638F00E94DA08CDB7DEB7E0E1E6
:103070000C94D930082D10E082E0861568F0909EFF
:10308000F001919EF00D1124E451FD4F8091040553
:103090008083809105058183411026C0909EF001B8
:1030A000919EF00D1124E451FD4F13821282209164
:1030B0005301200F312F311D909EF001919EF00D94
:1030C0001124E451FD4F4281433308F042E3909EC6
:1030D000F001919EF00D1124E451FD4F618180813A
:1030E0000E94DE098394BBCF909EE001919ED00D9B
:1030F0001124C451DD4F8B818823E9F081508B83EB
:10310000859DC00111246C8170E00E94A730FB01F5
:10311000FF27E85EFB4F8491E82FE719E59DC0018A
:103120001124B6010E94A73080910605689FB00166
:1031300011247A83BCCF0E94B431B5010E940B31B7
:103140008E159F050CF0B3CF82E0861588F40E949F
:10315000B431B5010E940B3188830E94B4312091B3
:1031600005052695622F70E00E940B31280F2983F8
:10317000909EF001919EF00D1124E451FD4F1282BA
:1031800080910605893C58F088EC909EF001919E54
:10319000F00D1124E451FD4F8483838388CF843163
:1031A000A0F784E1F2CF9091AB0492FB222720F9A3
:1031B000281779F080FB92F99093AB046091AA04F0
:1031C0007091AB0484E090E00E94293282E00C947C
:1031D000170F0895B0E0A0E0E0EFF8E10C94C130E3
:1031E000C82F7B01D42F6901FB0180809180A280D0
:1031F000B3800E94F707681979098A099B09643628
:1032000071058105910510F4DD2359F10C2E000C98
:10321000DD0BFE0183E0EE0FFF1F8A95E1F7EC5F07
:10322000FE4F8181928185599D4F408150E0041766
:10323000150708F4A801B6010E94E531CE010E94ED
:103240003730C82F882339F00E94F707F7016083D1
:103250007183828393838C2FCDB7DEB7ECE00C941F
:10326000DD30C1E0F8CFABE0B0E0E9E3F9E10C9488
:10327000C93088E0E3E0F5E0DE01119601900D929F
:103280008A95E1F78091E7029091E802A091E90226
:1032900089879A87AB8741E08B85811101C040E027
:1032A0000BE010E09E012F5F3F4F67E872E084E083
:1032B00091DF81111092E9022B96E4E00C94E53045
:1032C0000F931F93CF93DF93EC0144E050E060E74E
:1032D00072E00E94D83141E0892B09F440E004E01B
:1032E00010E09E0167E672E082E074DFDF91CF912B
:1032F0001F910F910895CF92DF92EF92FF921F934B
:10330000CF93DF9300D000D0CDB7DEB7C09083025B
:10331000D0908402E0908502F09086020E94F70728
:103320006C197D098E099F0911E0643671058105CC
:10333000910570F10E94280C6E5F7F4F8F4F9F4F59
:1033400069837A838B839C8380911D0190911E01F8
:1033500085599D4F40911C0150E04530510510F0BA
:1033600044E050E0BE016F5F7F4F0E94E53183E093
:1033700090E00E943730182F882351F00E94F70701
:1033800060938302709384028093850290938602F7
:10339000812F0F900F900F900F90DF91CF911F9181
:1033A000FF90EF90DF90CF9008958F929F92AF9211
:1033B000BF92EF92FF921F93CF93DF9300D000D084
:1033C0000F92CDB7DEB77B0190E080E00E943730EE
:1033D000182F882309F482C04091070150E041155D
:1033E000510511F041E050E0609108017091090130
:1033F00065597D4FCE0105960E94E53180906302AC
:1034000090906402A0906502B09066020E94F70757
:10341000681979098A099B09643671058105910546
:1034200040F48CE692E00E9474069D81891709F4AD
:1034300055C081E090E00E94373081111EC010E03D
:1034400080915F0290916002A0916102B09162024E
:10345000F70180839183A283B383812F0F900F9014
:103460000F900F900F90DF91CF911F91FF90EF90F1
:10347000BF90AF909F908F90089540910F0150E0C2
:103480004530510510F044E050E06091100170911A
:10349000110165597D4FCE0101960E94E5318CE600
:1034A00092E00E9474069D818913C9CF0E94F7079C
:1034B0006093630270936402809365029093660246
:1034C00089819A81AB81BC8180935F029093600275
:1034D000A0936102B093620211E0B2CF80916C02BE
:1034E00090916D02A0916E02B0916F0289839A83D0
:1034F000AB83BC831111E4CFA3CF1F93CF93DF9392
:10350000182FEB01F8D8209731F4812FCED8DF9116
:10351000CF911F9108958FE99FE00197F1F700C0C7
:1035200000002197F0CF1F920F920FB60F92112437
:103530002F933F934F935F936F937F938F939F93BB
:10354000AF93BF93CF93DF93EF93FF93D091E900B5
:10355000DF708091EC00C82FC17080FDC0E8109230
:10356000E9008091F000877F8093F00078940E94BA
:103570007E101092E9008091F00088608093F00046
:10358000CD2BCF70C093E900FF91EF91DF91CF91E8
:10359000BF91AF919F918F917F916F915F914F916B
:1035A0003F912F910F900FBE0F901F9018951F9273
:1035B0000F920FB60F9211242F933F934F935F9367
:1035C0006F937F938F939F93AF93BF93EF93FF93EB
:1035D0008091E10082FF09C08091E20082FF05C076
:1035E0008091E1008B7F8093E1008091DA0080FF81
:1035F00024C08091D80080FF20C08091DA008E7FA7
:103600008093DA008091D90080FFAAC080E189BD53
:1036100082E189BD09B400FEFDCF81E08093BC0446
:103620008091B104811109C00E948B060E942C0771
:103630008091E20084608093E2008091E10080FF4D
:103640001AC08091E20080FF16C08091E2008E7F58
:103650008093E2008091E20080618093E20080919B
:10366000D80080628093D80019BC85E08093BC04A8
:1036700083E0809359018091E10084FF30C0809104
:10368000E20084FF2CC080E189BD82E189BD99B54B
:10369000892F817090FFFBCF9091D8009F7D9093F0
:1036A000D8009091E1009F7E9093E1009091E2001C
:1036B0009F7E9093E2009091E20091609093E200EF
:1036C0009091BD04992309F451C094E09093BC04F7
:1036D0009091BC04943009F482E080935901809168
:1036E000E10083FF2CC08091E20083FF28C080911D
:1036F000E100877F8093E10082E08093BC04109218
:10370000BD048091E1008E7F8093E1008091E20012
:103710008E7F8093E2008091E20080618093E200DE
:1037200042E060E080E00E94FA068091F00088604C
:103730008093F00081E08093590180935801FF91BC
:10374000EF91BF91AF919F918F917F916F915F9119
:103750004F913F912F910F900FBE0F901F90189592
:1037600019BC1092BC041092B10467CF9091E30091
:1037700097FD02C0982FAACF93E0A8CF78941F920C
:103780001FB61F9211248F939F93AF93BF93809185
:10379000AD049091AE04A091AF04B091B004019635
:1037A000A11DB11D8093AD049093AE04A093AF040E
:1037B000B093B004BF91AF919F918F911F901FBEA6
:1037C0001F9018952FB7F8948091AD049091AE0496
:1037D000A091AF04B091B0042FBF0895CF93DF93B1
:1037E000EC01F0DF8C1B9D0BDF91CF910895EF92E0
:1037F000FF920F931F93CF93DF93C62FD42F022FE7
:10380000FC0185818823A1F060930205DBDF9093A2
:10381000010580930005C77081E001C0880FCA953B
:10382000EAF70E944C13CDB7DEB7E6E00C94E33024
:1038300080910205681334C0E0900005F090010506
:10384000C1DF8E199F09883C910550F510E21D0FCC
:10385000CD17B9F080E28C0F883040F4C77081E05A
:1038600001C0880FCA95EAF70E944713183048F440
:1038700081E09D2F977001C0880F9A95EAF70E940A
:103880004C1370E060E0802F38DE183060F6D7709F
:1038900081E001C0880FDA95EAF70E944713C3CF91
:1038A000C77081E001C0880FCA95EAF7F6CF809112
:1038B000A204882309F086CF0E94280CCB0108952A
:1038C000609103056695669570E04BE050E083E4F7
:1038D00091E00E94CB31892B19F481E08093E802BA
:1038E000E6DF9093E2028093E1028091E902846036
:1038F0008093E90208959091030590FF2CC0937086
:1039000081112AC09460909303058091E90281603F
:103910008093E902662321F083E095E00E94E113A1
:10392000609103056695669570E04BE050E083E496
:1039300091E00E94CB31892BB9F00E94D30881E03D
:103940008093E40220E04091060560910505809196
:1039500004050C94021408958B3210F0986AD3CFAA
:10396000880F880F982BCFCFABDFE9CF809103056D
:1039700086958695815009F48AE261E0BCCF8091FA
:103980000305869586958F5F8B3208F081E061E0B4
:10399000B2CFA4E0B0E0EFECFCE10C94C1306C01DC
:1039A000FC018481882309F4BEC061E0C6018DD981
:1039B0008C01F6019581992309F425C181818093B9
:1039C000B30280818093B20280E280933B01109326
:1039D000B1020093B002980130522115304238F400
:1039E000F6018681807F09F435C5F8010BC0980186
:1039F00030542115304108F042C0F6018681807FA5
:103A0000F80109F0FF27ED33F10528F4E158FE4FE6
:103A1000E491E0933B01980137572038310508F0D5
:103A200012C5003108F070C066E572E080E090E0F9
:103A30008BD8811169C0812C912C540101112EC0A9
:103A400089829A82AB82BC824AE0842ECE010196A2
:103A500088D8882309F458C0813009F07DC0CE0190
:103A600001967FD8813069F5CE0101967AD870E051
:103A700060E0893311F460E570E03FDDE7CF980145
:103A80003A9521153F4108F4B0CF9801205A3245AC
:103A90002032310508F4BFCFF801B5CF27E58216F3
:103AA00022E09206A104B10479F1C501B4014CD819
:103AB000811101C001503FEF831A930AA30AB30A90
:103AC000BDCF823031F4CE0101964BD80E947B13DA
:103AD000BDCF833031F4CE01019643D80E945513F7
:103AE000B5CF843079F4CE0101963BD810E000E0E8
:103AF000482F4053550B9A014A305105C0F001152B
:103B0000110509F58111A2CF80912702877059F024
:103B1000F6018581882339F08091AB0482FF03C0D0
:103B200082E00E94170F2496ECE00C94DD30809E1A
:103B3000C001819E900D11248901080F191FCE012B
:103B400001960FD8D5CFEFE9FFE03197F1F700C02C
:103B5000000001501109D3CFE82FF0E0E551FE4FEE
:103B60009490282F26952695269530E0F901E55268
:103B7000FE4FE4908770F12C082E02C0F594E79474
:103B80000A94E2F7F1E0EF22FF24F901E553FE4F3A
:103B9000A490B12C082E02C0B594A7940A94E2F721
:103BA00041E0A422BB24F901E554FE4F049110E04A
:103BB00002C0159507958A95E2F701701127E11467
:103BC000F10419F081EE0E947B13A114B10419F0E5
:103BD00086EE0E947B1370E060E0892D8EDCA114DC
:103BE000B10419F086EE0E945513E114F10419F0A6
:103BF00081EE0E9455130115110509F427CF70E0DD
:103C000060E08CE23ACFF801E851FC47E730F1057B
:103C100008F00DC4EA55FD4C0C941E3126E241EE2D
:103C200061EEC601E4DD70CF27E245EE65EEF9CF27
:103C300026E241EE60EEF5CF27E245EE64EEF1CFED
:103C400026E241EE62EEEDCF27E245EE66EEE9CFE9
:103C500028E241E0EBCF8091AA0481608093AA041E
:103C600095C08091AB0488608093AB048FC0809135
:103C7000AA048260F3CF8091AA048460EFCF809180
:103C8000AA048860EBCF8091AB048160EDCF809176
:103C9000AB048260E9CF8091AA048061DFCF80917C
:103CA000AA048062DBCF8091AA048064D7CF0E94EF
:103CB0005F108091AA048068D1CF8091AA048C60A3
:103CC000CDCF8091AB048360CFCF8091AA048E7F4B
:103CD000C5CF8091AB04877FC7CF8091AA048D7F29
:103CE000BDCF8091AA048B7FB9CF8091AA04877F32
:103CF000B5CF8091AB048E7FB7CF8091AB048D7F21
:103D0000B3CF8091AA048F7EA9CF8091AA048F7D22
:103D1000A5CF8091AA048F7BA1CF0E945F108091D4
:103D2000AA048F779BCF8091AA04837F97CF80913D
:103D3000AB048C7F99CF8091AA0482FB992790F9DC
:103D400021E0922790FB82F990FB83F987CF809145
:103D5000AB04982F909591708E7F892B90FB81F901
:103D600083CF9091AA04892F8F7B96FF806476CFB2
:103D70000E945F109091AA04892F97FB87F98058C1
:103D80006DCF61E08EE090E00E940F326091AA0456
:103D90007091AB0484E090E00E9429320E945F1091
:103DA000B3CE60E0EFCF9091AA04892F8F7E94FF6D
:103DB000806154CF9091AA04892F8E7F90FF8160FB
:103DC0004DCF9091AB04892F877F93FF88604CCFB4
:103DD00085E328C385E334C3992309F407C380919D
:103DE00052028272F801E052F847EB30F10508F018
:103DF00051C0E355FD4C0C941E318091030580FFAA
:103E000011C08E7F8093030583E095E00E94E1134B
:103E10000E94D3088091E90281608093E9020E94A8
:103E2000DA0872CE81608093030561E086958695FD
:103E300062DD6ACE882321F099DD66CE8823E1F326
:103E40009EDD62CE882329F00E94B0145DCE8823C7
:103E5000D9F30E94B81458CE882329F00E949A14EE
:103E600053CE8823D9F30E94A5144ECE882329F07F
:103E70000E94841449CE8823D9F30E948F1444CE23
:103E8000882329F00E94C0143FCE8823D9F30E94D2
:103E9000CA143ACE07375CE71507F9F008378CE704
:103EA000180741F19801205E32452032310520F596
:103EB000911134C00F7181E090E0FC0102C0EE0F5F
:103EC000FF1F0A95E2F78F016E2F83E090E00E94BA
:103ED0000F32802F0E94370F17CE81E00E942D0FE6
:103EE00043E062E081E00E94EE0E0ECE81E00E948F
:103EF0000C0FF6CF82E0F2CF992381F00330FCE77C
:103F00001F0709F477C008F05AC001153CE71307F2
:103F100009F463C001301C4709F472C0F6018581C1
:103F200000811181882309F478C0C8010E940A1613
:103F3000F82E682FC8010E94B40EB8018F2D0E9480
:103F4000FE150E94310D8C01882EF601A580968009
:103F500092943FE0932280912702877009F1EA2C26
:103F6000AA20F9F0812F807F803469F080E2800FF1
:103F70008830B0F0812F807E803229F4F1E0F01794
:103F800078F4992069F08091AB0482FF09C082E047
:103F90000E94170F809127028770EE24E39481110D
:103FA000E12CB12EB2942FE0B2222BE02B1508F4B5
:103FB00098C0EB2DF0E0E854FD4C0C941E310B350D
:103FC0005CE7150741F10C358CE71807D9F00A3585
:103FD0001C4709F0A3CF81E01CC00E945F10EFEFE7
:103FE000F4E32CE0E150F0402040E1F700C0000095
:103FF0000E94E6076FEF7FEF90E080E00E94293299
:104000000E9446178091AB0482FB882780F991E0DB
:104010008927C9D883CF80E0FCCFC8010E94800ED9
:10402000F82E8BCF312F3F70F32E107F19F0F294C2
:1040300090EFF922AA20B9F0FF2069F080E2800F0A
:10404000883010F0811009C080915202F82AF09255
:1040500052020E940B10802F42C080912902F82A40
:10406000F0922902F6CF802F0E945513FF20C9F14C
:10407000005E083010F0811004C08F2D0E94480EA1
:1040800006C0F09480912902F822F09229020E9441
:104090000B1027C0412F4F70F42E107F103219F0F3
:1040A000F29480EFF822882051F051E0851609F44F
:1040B0005AC0AA2009F466C0992059F1CCCF80914A
:1040C000AB0482FD22C0AA20D1F0FF2039F08091FC
:1040D0005202F82AF09252020E940B1080E00E94D5
:1040E0007B132B2D2850330B2430310508F066C18B
:1040F0000E94B30860E0C6010E94651614CD80E0FE
:104100000E945513FF2069F3B8CFAA2099F09110AF
:1041100004C08F2D0E944C13E4CF81E09812E1CFB0
:10412000809128029F2D9823F916D9F2F82AF0924F
:104130002802D7CF9110D5CF8F2D0E944713909191
:1041400028028F2D892329F08F2D80958923809334
:10415000280280910D029F2D982319F2F094F822E5
:10416000F0920D02BECFAA2029F095E0991508F42F
:10417000B8CFCFCFE4E0E91508F4B3CF8F2D0E947C
:104180004713AFCF9920D1F3F9E38F1209C02FEF76
:1041900037EE43E0215030404040E1F700C00000DE
:1041A000802F0E9455139DCF812F86958695837011
:1041B00061F0813009F095CFC8019370A11002C061
:1041C00080E090E00E9465088CCFC8019370A11038
:1041D00002C080E090E00E948C0883CF812F837022
:1041E00089F5A1107ECF402F429546954770440F28
:1041F000440F802F8F70042E01C0880F0A94EAF7B5
:10420000202F207104FF07C02FE030E001C0220FF3
:104210004A95EAF72095169516951370123069F0B5
:1042200050F430919A02113029F0822B83230E949E
:10423000370F57CF832B822BFACF282B80919A02EE
:104240008227F5CF8695AA2011F0812F81708823CF
:1042500009F447CF402F429546954770440F440FCD
:10426000802F8F70042E01C0880F0A94EAF7202F48
:10427000207104FF07C02FE030E001C0220F4A95F3
:10428000EAF72095169516951370123069F050F4E0
:104290003091A802113029F0822B83230E94EB0E6B
:1042A00020CF832B822BFACF282B8091A802822744
:1042B000F5CF1F70AA2029F0812F0E942D0F802F8B
:1042C00029CF802F0E944713812F0E940C0F09CF06
:1042D000802F52EF8516B1F1581570F090EF8916C6
:1042E000D1F0E1EF8E1691F0AA2009F457C0911099
:1042F000B2CE812F8F712AC0F3EF8F1651F124EFC8
:104300008212F2CF9091AB0492FD2FC0812F8F715A
:10431000AA20D9F21BC0AA2081F034E0391508F494
:10432000E0CE1F7181E090E0012E01C0880F0A9459
:10433000EAF79091A8028927B1CF45E0491508F422
:10434000D0CEEFCF812F8F71A110BFCF0E942D0F44
:10435000C8CE80E0AA2009F4A1CF1F7181E0012E10
:1043600001C0880F0A94EAF799CFAA2061F0812F43
:104370008F7192FFEBCF58E0859F9001112423604D
:1043800020932702E3CF81E00E94170F81E0891577
:1043900008F0A7CE82E00E94170FA3CE992059F013
:1043A000893309F0FDCE9FEFE7EEF3E09150E04056
:1043B000F040E1F7F3CE812F8F7187CFEE2009F423
:1043C00099CE8091270280FD95CEF60115828695C3
:1043D000869586950E942D0FC601DBDA8091270213
:1043E0008695869586950E940C0F84CE0737FCE74C
:1043F0001F0709F47BCD08372CE7120709F052CDCF
:1044000082E075CD06313CE7130709F0E5CC8091D9
:1044100052028A7A91E009F490E090930C028111A3
:10442000D7CC89E20E9431080E940B106DCB063177
:104430004CE71407D9F680910C028111CBCC89E2AC
:104440000E940608F1CFF801E851FC47E730F1057A
:1044500008F4E0CB10920205980130572332310561
:1044600088F684E090E00E94FB319093AB04809347
:10447000AA04F801E150F047E232F10508F0EBCB75
:10448000EC53FD4C0C941E31CF93DF9380912602A8
:10449000807F09F04CC080912502882309F447C031
:1044A000E091FF045091C604C0912102D0912002F6
:1044B000609122027091230247E05E17C1F18E2FB6
:1044C00090E0E49FF0011124E953FB4F2481222363
:1044D00089F1489FF001499FF00D1124DF01A95394
:1044E000BB4F11962C9111972C1324C02C912D1396
:1044F00021C015962C91159721111CC012962D9153
:104500003C91261B370B283C3105A0F480912602F4
:104510008F70806180932602E353FB4F80818F7000
:104520008061808380E292E034DA0E94760EDF912F
:10453000CF910895FC013196E770BFCFA4E1B0E0C0
:10454000E4EAF2E20C94C1308C0186E0F801DE016D
:104550001F9601900D928A95E1F7F8018481E5801C
:1045600090E2A92E92E0B92E90912402911126C0DA
:10457000882309F1EE20E9F0C8010E944316F82EC5
:104580008823B9F087E0F801D50101900D928A9552
:10459000E1F780912402813031F4809120029091E2
:1045A00021020E94381670DF8F2D6496ECE00C9487
:1045B000DD30C801EED9FF24F394F6CFD080C1805E
:1045C00082809380F0902502209122023091230274
:1045D000A401421B530BFF2009F4D3C0483C5105F2
:1045E00008F08EC0882301F3909121028091260269
:1045F000282F207F09F054C0C91213C090912002C7
:10460000D9120FC0E11046C08F70806180932602DE
:1046100080E292E0BED980912602F8018683F12CD7
:10462000C3CFE11037C06C2D8D2D0E9455066C2D27
:104630008D2D0E945506E82E8111F1CFDF86C88AA4
:104640008F8598890E943816292F22952F70243043
:1046500058F49F70223080F0992391F0F8019681F0
:10466000907F71F4FE2CA0CF2A5F2F70223060F073
:10467000C8018FD9EF2CF6CF992311F0882391F33D
:10468000805E883078F3F4CF803F60F3815F8330C1
:1046900078F7E8CF80912602816080932602BFCF11
:1046A000C91207C090912002D91203C0EE2009F46C
:1046B00089C0C8010E944316882309F47ACFEE20EE
:1046C00009F477CF80912602803280F02091200279
:1046D00030912102398728879B868A86909124020F
:1046E0009C871D868E87CE01089653D987E0F801F6
:1046F000A0E2B2E001900D928A95E1F7C5DE5BCFB2
:1047000090912602292F207F49F480E292E041D93E
:1047100087E0F50111928A95E9F781CF882309F4A2
:1047200043CF809121028C110FC080912002D812BA
:104730000BC0E11009C09683C8012BD987E0F501B1
:1047400011928A95E9F730CFC8010E944316882359
:1047500009F42FCFEE2009F42CCF8091260280326D
:1047600028F220912002309121023A8329839C82F1
:104770008B82909124029D831E828F83CE010196AD
:10478000B4CF483C5105D0F6882309F414CFFE2C51
:10479000EE2009F40ECF809121028C111FC0809170
:1047A0002002D8121BC08091260280FD0EC0982FD7
:1047B000907F59F08683903F31F0982F907F905FE3
:1047C0008F70892B8683C801E4D887E0F801A0E2C6
:1047D000B2E001900D928A95E1F7E6CEC8010E9401
:1047E0004316811183CF8091260281608093260237
:1047F000C801CFD8D9CEABE1B0E0E1E0F4E20C944F
:10480000CA304E8B5F8B688F798F8A8F9B8F911107
:10481000109229021D8A86E0FE017696DE011F961F
:1048200001900D928A95E1F78B89882351F061E020
:10483000CE010F960E94651661E0CE010F960E9490
:10484000651687E0FE013F96DE01189601900D92F5
:104850008A95E1F7CE01089671DE81110CC087E0E0
:10486000FE013896DE01119601900D928A95E1F7CE
:104870008C8581110BC017E08091FF049091C604D4
:10488000891331C06B96E3E00C94E6302091C604A6
:1048900030E0C9010196877099274091FF044817BD
:1048A000190699F097E0929FD001939FB00D1124C3
:1048B000A953BB4FFE01319601900D929A95E1F7F5
:1048C0008093C6040E94760ED6CF0E945F1010928D
:1048D000C6041092FF0487E0E0E2F2E0DF011D92DF
:1048E0008A95E9F7C8CF819FC001112489539B4F56
:1048F00025DE882339F28091FF0490E001968770CD
:1049000099278093FF04B8CFA3E1B0E0EAE8F4E28E
:104910000C94C0308E01045F1F4F88E0D8011D92B7
:104920008A95E9F785E9C82E81E0D82EF12CE12C93
:10493000AA24A394B12C2FE9822E21E0922EF60115
:1049400081916F018F3F09F442C0F894E82FE295FE
:10495000EF70F0E021A18F70A50102C0440F551F38
:104960008A95E2F7CA01922F982B91A392A1809584
:10497000892382A3789400C0E9E9F1E0712C31E049
:1049800021912F3F09F4A3C0A22FA295AF70B0E0F0
:1049900090968C9190E02F7002C0959587952A95FE
:1049A000E2F780FD94C0832F782A330F8E169F067E
:1049B00039F7F601319780818F3F11F00E94110C79
:1049C00050EA5A95F1F7F801EE0DFF1D70828FEF56
:1049D000E81AF80A94E0E916F10409F0B0CF48E0CB
:1049E00050E0B80180E992E00E94D831009741F090
:1049F00028E0F801A0E9B2E001900D922A95E1F7D4
:104A00000091990210E007521D4F892B09F461C0F3
:104A100081E0809357020E94E21B9093560280939C
:104A20005502F12CE090A204EE2009F4B0C01982E6
:104A30001A821B821C8280918B028A3008F06FC020
:104A400045ED59E1BE016F5F7F4FC8010E9413170A
:104A5000882309F48BC040E659E1BE016F5F7F4FA8
:104A6000C8010E941317882309F480C04BE759E15D
:104A7000BE016F5F7F4FC8010E941317882309F49E
:104A800075C043E359E1BE016F5F7F4FC8010E94CB
:104A90001317882309F46AC010928B028091980240
:104AA00090E044E050E0BE016F5F7F4F87529D4F22
:104AB0000E94D83121E020935E02892B09F048C082
:104AC000E12C8E2D8F296396EDE00C94DC3080E094
:104AD0006BCFF0905702FF2009F4A3CFC09055028E
:104AE000D09056020E94E21B8C199D09059708F48C
:104AF00098CF44E050E060E972E0C8010E94D831EC
:104B0000892B59F084E0E0E9F2E0D80101900D92A0
:104B10008A95E1F71092570285CFF12CFBCFC09018
:104B20005802D09059020E94E21B8C199D09843FC3
:104B3000914008F085CF80915E02882309F284E0DD
:104B4000FE013196DF011D928A95E9F710925E020F
:104B5000E0919802F0E0E752FD4F89819A81AB81A4
:104B6000BC8180839183A283B383ABCF80918B027E
:104B70008F3F31F08F5F80938B028A3008F48ECFA5
:104B80000E94E21B9093590280935802D4CFC090A8
:104B90009802D12CF601E752FD4F6F0184E0F80135
:104BA000ACE6B2E001900D928A95E1F78CE692E0D6
:104BB0000E94740680936B0284E0E0E7F2E0D60185
:104BC00001900D928A95E1F78090740290907502A1
:104BD000A0907602B090770280915A0290915B0289
:104BE000A0915C02B0915D0288169906AA06BB06E8
:104BF000B1F080925A0290925B02A0925C02B09255
:104C00005D020E94F707861A970AA80AB90A8092DD
:104C10008C0290928D02A0928E02B0928F028BE055
:104C2000E8E7F2E0DE01119601900D928A95E1F736
:104C30008091780286958695D0907902C0907A020C
:104C4000B0907B0200918102109182021092820248
:104C5000112309F436CF10FF0BC0998190FF1CC0BF
:104C60009091030591609093030560E00E947B1C86
:104C700011FF06C020E04B2D6C2D8D2D0E940214DB
:104C800012FF04C0002359F00E94601C13FF19CFCB
:104C900081E08093E40215CF0E943209E9CF0E949F
:104CA000D308F4CFA6E0B0E0E8E5F6E20C94C93012
:104CB0000E94E21B8C018091530290915402801754
:104CC000910779F019821A820E94E21B682F4981AC
:104CD0005A81792F80E090E08EDD1093540200938A
:104CE00053022696E4E00C94E5301F921FB61F9203
:104CF00011248F939F93AF93BF938091AC04811144
:104D000013C08091AD049091AE04A091AF04B09116
:104D1000B0044196A11DB11D8093AD049093AE04E3
:104D2000A093AF04B093B004BF91AF919F918F91C6
:104D30001F901FBE1F901895CDB7DEB7A8970FB66E
:104D4000F894DEBF0FBECDBF85B7806885BF85B73D
:104D5000806885BF84B7877F84BF0FB6F894A89515
:104D600080916000886180936000109260000FBEA7
:104D700080E890E00FB6F894809361009093610012
:104D80000FBE81E0809359018FE09CE09093E30196
:104D90008093E2010E948B060E942C078091E20022
:104DA00084608093E20078948091BC048823A1F011
:104DB0001091E9001F709091EC00892F817090FD97
:104DC00080E8182B1092E9008091E80083FD0E9492
:104DD0007E101F701093E90082E084BD93E095BDC2
:104DE0009AEF97BD80936E0010928C0210928D0204
:104DF00010928E0210928F020E948515811102C0BE
:104E00000E9497178091D80080618093D8002AE192
:104E10002A95F1F700C08091D900182F117080FDFC
:104E200004C00E948B061092BC041093A20410933D
:104E3000A30410932C01112309F4A0C01092510176
:104E40008BE1809352010E94542F80912C0180911C
:104E50002C0194E0811190E09093990284E0891BE9
:104E60008093980284E90E94110C86E60E94110C3E
:104E700087E90E94110C86EC0E94110C09E911E0EF
:104E80006FE9E62E61E0F62ED8018D918D018F3FFE
:104E900011F00E94110CE016F106B1F788E0E9ED7F
:104EA000F2E0DF01282F1D922A95E9F7E0E9F2E010
:104EB000DF011D928A95E9F790E080E00E94FB31C6
:104EC000833E9E4F21F40E94851581112BC063EE15
:104ED0007EEF90E080E00E94293260E082E090E086
:104EE0000E940F3281E080939A0261E083E090E0BB
:104EF0000E940F3260E074E184E090E00E94293269
:104F00000E94D4140E94971740E050E0BA018FE04D
:104F100090E00E94213240E050E0BA0183E190E04D
:104F20000E94213282E090E00E94EE3180939C0248
:104F300084E090E00E94FB319093AB048093AA043C
:104F4000E3DCEFEFF6E721E0E150F0402040E1F74D
:104F500000C00000D9DC8091A304E4E08111E0E00E
:104F6000F0E0E752FD4F808181FF0EC06FEF7FEFD1
:104F700090E080E00E9429320E94E6078BE1809356
:104F800051018093520161CF83E090E00E94EE31A5
:104F90000E94370F8091A2048111D5C082E08093D6
:104FA000D40280E880930B0531D66BE070E082E894
:104FB00092E00E94BC178823E9F18091D40265E059
:104FC00070E081FDC2C08DE792E00E94BC1788238B
:104FD00089F16DE070E08BE692E00E94BC178823B7
:104FE00049F10E94F707605A75418F4F9F4F6093B8
:104FF000FA037093FB038093FC039093FD03EEE0B0
:10500000F5E080E092E0DF019C011D9221503040EC
:10501000E1F7F0931507E09314078FEF9FEF90935C
:105020000D0580930C0581E08093FF038093FE03C0
:105030001092D50280919B02811125C083E095E0FA
:105040000E9443158091E90283608093E902809178
:1050500003058C7F31F40E94D41483E095E00E9414
:1050600043150E943E090E94D3080E94D1088091F6
:10507000030580FF05C060E0869586950E947B1C35
:1050800081E080939B028091A204811101C00FD71F
:105090008DE291E09093A7048093A60458E1252E19
:1050A000312C8091BC0410E402E1853009F482C007
:1050B0002BDC0DE912E049EDE42E42E0F42ED7019D
:1050C000F80191918D9122E0E53AF20709F47CC054
:1050D0009817B9F38090A204D12CD701CD907D010F
:1050E000F80191908F019C1429F19C24B12CAA24E1
:1050F000A3948A2D8921B1F08820A1F0B9A2DAA267
:105100000E94E21B9CA38BA3F1E0FDA391E08A2DFA
:105110008C2109F490E09EA349A15AA16BA17CA126
:105120008DA169DBB394AA0C26E0B212E2CFF8019C
:105130003197C082D39438E0D312CFCF0E94280C8D
:10514000BB24B39445C080E02ACF88E792E03DCFEE
:105150008091BC04843019F10E94C9171092AC04EC
:105160000FB6F894A895209260000FBE10936000CF
:1051700083B7817F846083BF83B7816083BF789466
:10518000889583B78E7F83BF0FB6F894A8958091DA
:105190006000886180936000109260000FBEB4DBF5
:1051A000E9EDF2E081918111BCC481EE92E08E17AD
:1051B0009F07C1F78091BC04853009F4C9CF0E94D4
:1051C0005F100E94B30874CF981384CF6BDDB12CAD
:1051D0008091E802882309F465C08091E702E0919C
:1051E0000305E695E695E81BE093E302823009F0BB
:1051F00091C0F0E0E256FD4FE4910E2F10E03CEF3D
:10520000C32E3BE0D32E8091E402882361F01092FC
:10521000E4020E94571C9093E2028093E1021092F4
:10522000E6021092E5020E94571CE091E102F09123
:10523000E2029C012E1B3F0B2F3F3F4798F5209128
:10524000A7022223B1F01092A7022091A50230916B
:10525000A602821B930B8F3F9F4758F4205D3A486C
:105260003093A6022093A5028091E9028860809382
:10527000E902E090E502F090E602E00FF11FF09302
:10528000E202E093E10281EE92E0F601099580915D
:10529000E5029091E602892B29F4EF2819F0F1E05C
:1052A000F093A7028091FF03882309F4FFC00091C7
:1052B000D6021091D7020E94E21B801B910BC2976D
:1052C00008F4D4C00E94E21B9093D7028093D602C8
:1052D0008EE095E090931507809314078091A204C7
:1052E000882309F45EC183EC92E00E94CA0F80918A
:1052F000A8020E943A0F813009F40EC1882309F4F4
:1053000074C0823009F40BC1833009F40BC182EA06
:1053100092E06DC0863059F4F0E0E556FD4FE4911F
:105320000E2F10E02DEEC22E2BE0D22E6CCF893046
:1053300061F4E695F0E0E856FD4FE4910E2F10E0A1
:1053400097EAC92E9BE0D92E5ECF8F3061F4E695A7
:10535000F0E0EB56FD4FE4910E2F10E08CE1C82EEB
:105360008BE0D82E50CF853159F4F0E0EE56FD4F4A
:10537000E4910E2F10E0B2EACB2EBAE0DB2E43CF41
:10538000883161F1833249F4E0E9F2E0059114914A
:10539000A8E1CA2EA9E0DA2E36CF04EF11E07EEEA6
:1053A000C72E79E0D72E843209F42DCF00ED17E017
:1053B00064EEC62E67E0D62E853209F024CF8E2FFC
:1053C00063E010D7E92FF0E0E357FD4FE4910E2F93
:1053D00010E0FAE0CF2EF8E1DF2E15CF08E210E062
:1053E000E6E2CE2EEAE0DE2E0ECF8BEB92E00E94BC
:1053F00008108091B302805D0E944B0F81ED92E016
:105400000E94CA0F8091B202805D0E944B0F8DEC0A
:1054100092E00E94CA0F4090B0025090B102809179
:10542000390190913A014816590609F07EC08091E1
:10543000AF02803209F079C0E9EAF2E08F01819190
:105440008032E1F3F80101900020E9F79F0121503B
:10545000310979010E151F0508F49DC08BEC92E00F
:105460000E94CA0F80913B010E944B0F80910C0556
:1054700090910D05892B09F099C08091FE03882336
:10548000A9F00E94F7070091FA031091FB03209105
:10549000FC033091FD03601B710B820B930B6F3F7C
:1054A0007F4F8F4F9F4710F40E94C917B1100E9481
:1054B000E3170E94B3089091D802891721F08093D6
:1054C000D8020E94F7078091BC04843009F0E9CD2E
:1054D00083E08093E9008091E80082FFE2CD809133
:1054E000E80090E085FF06C00E94AA06882309F420
:1054F00037C191E08091E8008B778093E800992391
:1055000009F4CFCD8981EFEFE80FE33108F04FC107
:10551000F0E0EA51FD4C92C685EB92E068CF8FEA4D
:1055200092E065CF88EA92E062CF50923A014092D1
:10553000390180E28093AF02712C612C1092AE028F
:1055400059EAE52E52E0F52E8701C301B2012AE0A7
:1055500030E040E050E0BDD7605D603319F4E01604
:10556000F10631F0411451046104710409F460E260
:10557000D80114966C93C301B2012AE030E040E0F8
:1055800050E0A7D729013A0101501109B2E0043ACD
:105590001B07D9F651CFD8018D918D010E944B0F79
:1055A00059CF83ED92E00E94CA0F60CF8091FF0334
:1055B000882309F462CF8091D50281115ECF0E94C9
:1055C000E31720910C0530910D052115310509F4E3
:1055D00054CF80E041E050E0082F10E04A01082E4F
:1055E00002C0880C991C0A94E2F7B901682179215C
:1055F000672B11F48F5FF0CF9091D40290FF97C08A
:10560000880F880F880F80933E0110924101895FB7
:1056100080933F0183E08093420124E630E047E03D
:1056200050E06CE371E088E725D3892B09F025CFA2
:10563000A80195E0440F551F9A95E1F78091D40297
:1056400080FF87C0E4EBF2E080E2DF011D928A95E3
:10565000E9F7E3EAF1E0F8A7EFA36FE971E087E08B
:10566000E82EDD24D394AFA1B8A52D91B8A7AFA3A0
:10567000FB016190BF01640E752E711CC301825F36
:105680009A4F3C01E22FF0E0EC54FD4F90E080E0B7
:10569000AE2CA81AFD2C082E01C0FF0C0A94EAF7C4
:1056A000230100E0D2011D912D011F212A2D201B75
:1056B0002770C22E022E000C330BB12F01C0BB0F7E
:1056C000CA94EAF7CB2E31952195310927703327FB
:1056D00001C016952A95EAF7C12A1081C12AC08215
:1056E0000F5F0830F9F6019631968830910581F602
:1056F000EFA1F8A5E75AF14009F0B5CF04E610E0B4
:1057000020E230E044EB52E060E488E733D3892BB9
:1057100009F0B3CE8094909480910C0590910D0582
:105720008822992290920D0580920C05A6CE829532
:10573000880F807680933E0198013695279536959F
:10574000279520934101815E80933F012093420180
:1057500064CF425F5A4F04E610E020E230E0D4CF3D
:1057600000E210E0CE0101967C018091E80085FD09
:105770000AC08091E8008B778093E8000E94AA0617
:10578000882399F3B6CE8091F100D7018D937D01E6
:105790000150110951F7ADCE1A828CE08B831AC0EB
:1057A0008A81823009F4D9C128F4813061F08FEF09
:1057B000898310C0833001F18430C9F71B821C82B9
:1057C0001D821E8207C00E94F7073ED56B837C8333
:1057D0008D839E83E091A604F091A704309709F48D
:1057E00060CC0284F385E02D309709F45ACC60E256
:1057F000CE010196099555CC2B81822F90E0FE01B8
:105800003496245E8830910528F7DC01A752BD4FFD
:105810003C91319301962813F5CFDCCF8A818230F9
:1058200049F0853021F68091030580FF0CC00E946D
:105830003209D0CF6B817C818D819E8105D588E234
:1058400090E0EDD5C7CF81608093030560E0869539
:1058500086950E947B1CBECF4C816B818A810E9401
:10586000CF159827892798279E838D83B3CF2D81C5
:105870003E813227232732274C816B818A810E9407
:10588000E614A8CF0E940C15A5CF9A81923009F09A
:105890008ECF8830D9F1893009F463C08B81823092
:1058A00001F1A0F4813009F095CF8C81B2E38B9F98
:1058B000C00111246FEF70E04AD4462F20E06091C0
:1058C0000505809104050E94021484CF8330D1F035
:1058D000843009F07FCF20E0409106056D818C81F6
:1058E000F2CF8C81882309F4A2CF809103058160D7
:1058F0008093030560E0869586950E947B1C60E09E
:105900008C81A7CF8C818093070564CF8B818230F7
:10591000D9F070F4813009F05DCF80910605EFEF8A
:105920008E9FC001112462E370E011D46C8352CFCA
:105930008330A1F0843009F04DCF809104058C8331
:10594000809105058D8346CF8091030580FF04C0BB
:10595000869586958C833ECF80E0FCCF80910705AD
:10596000F9CF0E943E0983E095E00E94E11332CF17
:10597000F0E1FA832FCF82E08A8387E50FCFCA80D8
:10598000DB80DC24CD24DC248C80912CB12CA12C58
:105990002601712C612C27E5C21A2EEFD20ACE0106
:1059A00001967C0110E000E0C601800F911FA80164
:1059B00070E060E0481559056A057B0508F00ACFDC
:1059C000440D551D661D771D473552406105710513
:1059D00048F404D5F70184830F5F1F4FBFEFEB1A24
:1059E000FB0AE2CFD70114961C92F6CF0A811B81E5
:1059F0001027012710278C80912CB12CA12C280175
:105A0000712C612C07551E4FF12CE12CC8018E0D15
:105A10009F1DA70170E060E0481559056A057B05E8
:105A200008F0D8CE440D551D661D771D47355240F0
:105A30006105710540F4E1E0F0E0EC0FFD1FEE0DB3
:105A4000FF1D6481ECD4FFEFEF1AFF0ADFCF0E9445
:105A50005B17C0CE84E08A83BDCE8C80912CB12CA4
:105A6000A12CCA80DB80DC24CD24DC24F12CE12CA9
:105A70008E010F5F1F4F412C512C3201C6018996B8
:105A8000481459046A047B0408F0A4CE20E8C21626
:105A900021E0D206E104F10488F4A0D4D8011496E0
:105AA0008C93FFEF4F1A5F0A6F0A7F0A0F5F1F4F39
:105AB0002FEFC21AD20AE20AF20AE0CFF8011482EA
:105AC000F0CF4C80512C712C612CCA80DB80DC24FF
:105AD000CD24DC24F12CE12C812C912C5401C60125
